{
  "contractName": "Adoption",
  "abi": [
    {
      "constant": true,
      "inputs": [
        {
          "name": "",
          "type": "uint256"
        }
      ],
      "name": "pid_to_rented_map",
      "outputs": [
        {
          "name": "",
          "type": "bool"
        }
      ],
      "payable": false,
      "stateMutability": "view",
      "type": "function"
    },
    {
      "constant": true,
      "inputs": [
        {
          "name": "",
          "type": "uint256"
        }
      ],
      "name": "prop_id_to_contract_end",
      "outputs": [
        {
          "name": "",
          "type": "uint256"
        }
      ],
      "payable": false,
      "stateMutability": "view",
      "type": "function"
    },
    {
      "constant": true,
      "inputs": [
        {
          "name": "",
          "type": "uint256"
        }
      ],
      "name": "pid_to_address_map",
      "outputs": [
        {
          "name": "",
          "type": "address"
        }
      ],
      "payable": false,
      "stateMutability": "view",
      "type": "function"
    },
    {
      "constant": true,
      "inputs": [
        {
          "name": "",
          "type": "address"
        }
      ],
      "name": "bidding_price_map",
      "outputs": [
        {
          "name": "",
          "type": "uint256"
        }
      ],
      "payable": false,
      "stateMutability": "view",
      "type": "function"
    },
    {
      "constant": true,
      "inputs": [
        {
          "name": "",
          "type": "uint256"
        },
        {
          "name": "",
          "type": "uint256"
        }
      ],
      "name": "chain_of_custody",
      "outputs": [
        {
          "name": "",
          "type": "address"
        }
      ],
      "payable": false,
      "stateMutability": "view",
      "type": "function"
    },
    {
      "constant": true,
      "inputs": [
        {
          "name": "",
          "type": "uint256"
        }
      ],
      "name": "auction_amount",
      "outputs": [
        {
          "name": "",
          "type": "uint256"
        }
      ],
      "payable": false,
      "stateMutability": "view",
      "type": "function"
    },
    {
      "constant": true,
      "inputs": [
        {
          "name": "",
          "type": "address"
        }
      ],
      "name": "account_to_user_name",
      "outputs": [
        {
          "name": "fname",
          "type": "string"
        },
        {
          "name": "lname",
          "type": "string"
        },
        {
          "name": "amount",
          "type": "uint256"
        }
      ],
      "payable": false,
      "stateMutability": "view",
      "type": "function"
    },
    {
      "constant": true,
      "inputs": [
        {
          "name": "",
          "type": "uint256"
        }
      ],
      "name": "auction_owner",
      "outputs": [
        {
          "name": "",
          "type": "address"
        }
      ],
      "payable": false,
      "stateMutability": "view",
      "type": "function"
    },
    {
      "constant": true,
      "inputs": [
        {
          "name": "",
          "type": "address"
        },
        {
          "name": "",
          "type": "uint256"
        }
      ],
      "name": "account_to_pid_map",
      "outputs": [
        {
          "name": "",
          "type": "uint256"
        }
      ],
      "payable": false,
      "stateMutability": "view",
      "type": "function"
    },
    {
      "constant": true,
      "inputs": [
        {
          "name": "",
          "type": "uint256"
        },
        {
          "name": "",
          "type": "uint256"
        }
      ],
      "name": "bid_prices",
      "outputs": [
        {
          "name": "",
          "type": "uint256"
        }
      ],
      "payable": false,
      "stateMutability": "view",
      "type": "function"
    },
    {
      "constant": true,
      "inputs": [
        {
          "name": "",
          "type": "uint256"
        },
        {
          "name": "",
          "type": "uint256"
        }
      ],
      "name": "bid_account",
      "outputs": [
        {
          "name": "",
          "type": "address"
        }
      ],
      "payable": false,
      "stateMutability": "view",
      "type": "function"
    },
    {
      "constant": false,
      "inputs": [
        {
          "name": "owner",
          "type": "address"
        },
        {
          "name": "propid",
          "type": "uint256"
        },
        {
          "name": "first_name",
          "type": "string"
        },
        {
          "name": "last_name",
          "type": "string"
        },
        {
          "name": "amt",
          "type": "uint256"
        }
      ],
      "name": "addProperty",
      "outputs": [],
      "payable": false,
      "stateMutability": "nonpayable",
      "type": "function"
    },
    {
      "constant": true,
      "inputs": [
        {
          "name": "prop_id",
          "type": "uint256"
        }
      ],
      "name": "getList",
      "outputs": [
        {
          "name": "",
          "type": "uint256[]"
        },
        {
          "name": "",
          "type": "address[]"
        }
      ],
      "payable": false,
      "stateMutability": "view",
      "type": "function"
    },
    {
      "constant": true,
      "inputs": [
        {
          "name": "acc",
          "type": "address"
        }
      ],
      "name": "getBidAmount",
      "outputs": [
        {
          "name": "",
          "type": "uint256"
        }
      ],
      "payable": false,
      "stateMutability": "view",
      "type": "function"
    },
    {
      "constant": true,
      "inputs": [
        {
          "name": "propid",
          "type": "uint256"
        }
      ],
      "name": "getAuctionPrice",
      "outputs": [
        {
          "name": "",
          "type": "uint256"
        }
      ],
      "payable": false,
      "stateMutability": "view",
      "type": "function"
    },
    {
      "constant": true,
      "inputs": [
        {
          "name": "propid",
          "type": "uint256"
        }
      ],
      "name": "getAuctionWinner",
      "outputs": [
        {
          "name": "",
          "type": "address"
        }
      ],
      "payable": false,
      "stateMutability": "view",
      "type": "function"
    },
    {
      "constant": true,
      "inputs": [
        {
          "name": "addr",
          "type": "address"
        }
      ],
      "name": "getProperties",
      "outputs": [
        {
          "name": "",
          "type": "uint256[]"
        }
      ],
      "payable": false,
      "stateMutability": "view",
      "type": "function"
    },
    {
      "constant": true,
      "inputs": [
        {
          "name": "addr",
          "type": "address"
        }
      ],
      "name": "getUserFirstName",
      "outputs": [
        {
          "name": "",
          "type": "string"
        },
        {
          "name": "",
          "type": "string"
        },
        {
          "name": "",
          "type": "uint256"
        },
        {
          "name": "",
          "type": "address"
        }
      ],
      "payable": false,
      "stateMutability": "view",
      "type": "function"
    },
    {
      "constant": true,
      "inputs": [
        {
          "name": "prop_id",
          "type": "uint256"
        }
      ],
      "name": "getAddress",
      "outputs": [
        {
          "name": "",
          "type": "address"
        }
      ],
      "payable": false,
      "stateMutability": "view",
      "type": "function"
    },
    {
      "constant": true,
      "inputs": [
        {
          "name": "prop_id",
          "type": "uint256"
        }
      ],
      "name": "getRented",
      "outputs": [
        {
          "name": "",
          "type": "bool"
        }
      ],
      "payable": false,
      "stateMutability": "view",
      "type": "function"
    },
    {
      "constant": true,
      "inputs": [
        {
          "name": "prop_id",
          "type": "uint256"
        }
      ],
      "name": "getChainOfCustody",
      "outputs": [
        {
          "name": "",
          "type": "address[]"
        }
      ],
      "payable": false,
      "stateMutability": "view",
      "type": "function"
    },
    {
      "constant": false,
      "inputs": [
        {
          "name": "owner",
          "type": "address"
        },
        {
          "name": "buyer",
          "type": "address"
        },
        {
          "name": "propid",
          "type": "uint256"
        }
      ],
      "name": "buyProperty",
      "outputs": [
        {
          "name": "",
          "type": "bool"
        }
      ],
      "payable": true,
      "stateMutability": "payable",
      "type": "function"
    },
    {
      "constant": false,
      "inputs": [
        {
          "name": "owner",
          "type": "address"
        },
        {
          "name": "renter",
          "type": "address"
        },
        {
          "name": "prop_id",
          "type": "uint256"
        },
        {
          "name": "years_after",
          "type": "uint256"
        },
        {
          "name": "weeks_after",
          "type": "uint256"
        },
        {
          "name": "days_after",
          "type": "uint256"
        }
      ],
      "name": "leasePropertyStart",
      "outputs": [
        {
          "name": "",
          "type": "uint256"
        }
      ],
      "payable": false,
      "stateMutability": "nonpayable",
      "type": "function"
    },
    {
      "constant": false,
      "inputs": [
        {
          "name": "owner",
          "type": "address"
        },
        {
          "name": "prop_id",
          "type": "uint256"
        }
      ],
      "name": "leasePropertyEnd",
      "outputs": [],
      "payable": false,
      "stateMutability": "nonpayable",
      "type": "function"
    },
    {
      "constant": false,
      "inputs": [
        {
          "name": "account",
          "type": "address"
        },
        {
          "name": "prop_id",
          "type": "uint256"
        },
        {
          "name": "price",
          "type": "uint256"
        }
      ],
      "name": "auction",
      "outputs": [],
      "payable": false,
      "stateMutability": "nonpayable",
      "type": "function"
    },
    {
      "constant": false,
      "inputs": [
        {
          "name": "prop_id",
          "type": "uint256"
        },
        {
          "name": "account",
          "type": "address"
        }
      ],
      "name": "endAuction",
      "outputs": [],
      "payable": false,
      "stateMutability": "nonpayable",
      "type": "function"
    }
  ],
  "bytecode": "0x6060604052341561000f57600080fd5b6121e08061001e6000396000f300606060405260043610610154576000357c0100000000000000000000000000000000000000000000000000000000900463ffffffff168063083d353b1461015957806308c23366146101bc5780630eab57661461023457806313b9b5981461026f5780631ab5b383146102bc5780632189a1b21461037c5780632c757ff6146103ea57806342e77eae14610542578063472d8de0146105795780634cea1b1c14610609578063513fa8641461066c5780636157b9b4146106fa578063677aeb62146107475780636f1db8e1146107b3578063917d009e146107f557806391c06e031461082c5780639d9ff84514610863578063a628690f146108ae578063b33734731461097f578063b8ea6bf614610ade578063b93f9b0a14610b41578063c5d97e9914610ba4578063cbbf212614610bfa578063cbf8455d14610c3a578063d6739bbe14610c7c578063eee9366414610ce8575b600080fd5b341561016457600080fd5b61017a6004808035906020019091905050610d23565b604051808273ffffffffffffffffffffffffffffffffffffffff1673ffffffffffffffffffffffffffffffffffffffff16815260200191505060405180910390f35b34156101c757600080fd5b6101dd6004808035906020019091905050610d60565b6040518080602001828103825283818151815260200191508051906020019060200280838360005b83811015610220578082015181840152602081019050610205565b505050509050019250505060405180910390f35b341561023f57600080fd5b6102556004808035906020019091905050610e07565b604051808215151515815260200191505060405180910390f35b341561027a57600080fd5b6102a6600480803573ffffffffffffffffffffffffffffffffffffffff16906020019091905050610e27565b6040518082815260200191505060405180910390f35b34156102c757600080fd5b6102dd6004808035906020019091905050610e70565b604051808060200180602001838103835285818151815260200191508051906020019060200280838360005b83811015610324578082015181840152602081019050610309565b50505050905001838103825284818151815260200191508051906020019060200280838360005b8381101561036657808201518184015260208101905061034b565b5050505090500194505050505060405180910390f35b6103d0600480803573ffffffffffffffffffffffffffffffffffffffff1690602001909190803573ffffffffffffffffffffffffffffffffffffffff16906020019091908035906020019091905050610f89565b604051808215151515815260200191505060405180910390f35b34156103f557600080fd5b610421600480803573ffffffffffffffffffffffffffffffffffffffff1690602001909190505061143e565b6040518080602001806020018581526020018473ffffffffffffffffffffffffffffffffffffffff1673ffffffffffffffffffffffffffffffffffffffff168152602001838103835287818151815260200191508051906020019080838360005b8381101561049d578082015181840152602081019050610482565b50505050905090810190601f1680156104ca5780820380516001836020036101000a031916815260200191505b50838103825286818151815260200191508051906020019080838360005b838110156105035780820151818401526020810190506104e8565b50505050905090810190601f1680156105305780820380516001836020036101000a031916815260200191505b50965050505050505060405180910390f35b341561054d57600080fd5b6105636004808035906020019091905050611660565b6040518082815260200191505060405180910390f35b341561058457600080fd5b6105f3600480803573ffffffffffffffffffffffffffffffffffffffff1690602001909190803573ffffffffffffffffffffffffffffffffffffffff16906020019091908035906020019091908035906020019091908035906020019091908035906020019091905050611678565b6040518082815260200191505060405180910390f35b341561061457600080fd5b61062a600480803590602001909190505061184f565b604051808273ffffffffffffffffffffffffffffffffffffffff1673ffffffffffffffffffffffffffffffffffffffff16815260200191505060405180910390f35b341561067757600080fd5b6106a3600480803573ffffffffffffffffffffffffffffffffffffffff16906020019091905050611882565b6040518080602001828103825283818151815260200191508051906020019060200280838360005b838110156106e65780820151818401526020810190506106cb565b505050509050019250505060405180910390f35b341561070557600080fd5b610731600480803573ffffffffffffffffffffffffffffffffffffffff1690602001909190505061191f565b6040518082815260200191505060405180910390f35b341561075257600080fd5b6107716004808035906020019091908035906020019091905050611937565b604051808273ffffffffffffffffffffffffffffffffffffffff1673ffffffffffffffffffffffffffffffffffffffff16815260200191505060405180910390f35b34156107be57600080fd5b6107f3600480803573ffffffffffffffffffffffffffffffffffffffff16906020019091908035906020019091905050611985565b005b341561080057600080fd5b6108166004808035906020019091905050611a7a565b6040518082815260200191505060405180910390f35b341561083757600080fd5b61084d6004808035906020019091905050611a97565b6040518082815260200191505060405180910390f35b341561086e57600080fd5b6108ac600480803573ffffffffffffffffffffffffffffffffffffffff16906020019091908035906020019091908035906020019091905050611aaf565b005b34156108b957600080fd5b61097d600480803573ffffffffffffffffffffffffffffffffffffffff1690602001909190803590602001909190803590602001908201803590602001908080601f0160208091040260200160405190810160405280939291908181526020018383808284378201915050505050509190803590602001908201803590602001908080601f01602080910402602001604051908101604052809392919081815260200183838082843782019150505050505091908035906020019091905050611c7e565b005b341561098a57600080fd5b6109b6600480803573ffffffffffffffffffffffffffffffffffffffff16906020019091905050611e96565b604051808060200180602001848152602001838103835286818154600181600116156101000203166002900481526020019150805460018160011615610100020316600290048015610a495780601f10610a1e57610100808354040283529160200191610a49565b820191906000526020600020905b815481529060010190602001808311610a2c57829003601f168201915b5050838103825285818154600181600116156101000203166002900481526020019150805460018160011615610100020316600290048015610acc5780601f10610aa157610100808354040283529160200191610acc565b820191906000526020600020905b815481529060010190602001808311610aaf57829003601f168201915b50509550505050505060405180910390f35b3415610ae957600080fd5b610aff6004808035906020019091905050611ebe565b604051808273ffffffffffffffffffffffffffffffffffffffff1673ffffffffffffffffffffffffffffffffffffffff16815260200191505060405180910390f35b3415610b4c57600080fd5b610b626004808035906020019091905050611ef1565b604051808273ffffffffffffffffffffffffffffffffffffffff1673ffffffffffffffffffffffffffffffffffffffff16815260200191505060405180910390f35b3415610baf57600080fd5b610be4600480803573ffffffffffffffffffffffffffffffffffffffff16906020019091908035906020019091905050611f2d565b6040518082815260200191505060405180910390f35b3415610c0557600080fd5b610c246004808035906020019091908035906020019091905050611f5e565b6040518082815260200191505060405180910390f35b3415610c4557600080fd5b610c7a600480803590602001909190803573ffffffffffffffffffffffffffffffffffffffff16906020019091905050611f8f565b005b3415610c8757600080fd5b610ca66004808035906020019091908035906020019091905050611fd7565b604051808273ffffffffffffffffffffffffffffffffffffffff1673ffffffffffffffffffffffffffffffffffffffff16815260200191505060405180910390f35b3415610cf357600080fd5b610d096004808035906020019091905050612025565b604051808215151515815260200191505060405180910390f35b60006006600083815260200190815260200160002060009054906101000a900473ffffffffffffffffffffffffffffffffffffffff169050919050565b610d6861204f565b60036000838152602001908152602001600020805480602002602001604051908101604052809291908181526020018280548015610dfb57602002820191906000526020600020905b8160009054906101000a900473ffffffffffffffffffffffffffffffffffffffff1673ffffffffffffffffffffffffffffffffffffffff1681526020019060010190808311610db1575b50505050509050919050565b60026020528060005260406000206000915054906101000a900460ff1681565b6000600760008373ffffffffffffffffffffffffffffffffffffffff1673ffffffffffffffffffffffffffffffffffffffff168152602001908152602001600020549050919050565b610e78612063565b610e8061204f565b600860008481526020019081526020016000206009600085815260200190815260200160002081805480602002602001604051908101604052809291908181526020018280548015610ef157602002820191906000526020600020905b815481526020019060010190808311610edd575b5050505050915080805480602002602001604051908101604052809291908181526020018280548015610f7957602002820191906000526020600020905b8160009054906101000a900473ffffffffffffffffffffffffffffffffffffffff1673ffffffffffffffffffffffffffffffffffffffff1681526020019060010190808311610f2f575b5050505050905091509150915091565b6000806000808673ffffffffffffffffffffffffffffffffffffffff1660008087815260200190815260200160002060009054906101000a900473ffffffffffffffffffffffffffffffffffffffff1673ffffffffffffffffffffffffffffffffffffffff16141561142f578673ffffffffffffffffffffffffffffffffffffffff166108fc349081150290604051600060405180830381858888f19350505050151561103557600080fd5b8560008087815260200190815260200160002060006101000a81548173ffffffffffffffffffffffffffffffffffffffff021916908373ffffffffffffffffffffffffffffffffffffffff1602179055506003600086815260200190815260200160002080548060010182816110ab9190612077565b9160005260206000209001600088909190916101000a81548173ffffffffffffffffffffffffffffffffffffffff021916908373ffffffffffffffffffffffffffffffffffffffff16021790555050600460008773ffffffffffffffffffffffffffffffffffffffff1673ffffffffffffffffffffffffffffffffffffffff168152602001908152602001600020805480600101828161114b91906120a3565b916000526020600020900160008790919091505550600091505b600460008873ffffffffffffffffffffffffffffffffffffffff1673ffffffffffffffffffffffffffffffffffffffff1681526020019081526020016000208054905082101561121f5784600460008973ffffffffffffffffffffffffffffffffffffffff1673ffffffffffffffffffffffffffffffffffffffff168152602001908152602001600020838154811015156111fc57fe5b9060005260206000209001541415611212578192505b8180600101925050611165565b8290505b6001600460008973ffffffffffffffffffffffffffffffffffffffff1673ffffffffffffffffffffffffffffffffffffffff168152602001908152602001600020805490500381101561133357600460008873ffffffffffffffffffffffffffffffffffffffff1673ffffffffffffffffffffffffffffffffffffffff168152602001908152602001600020600182018154811015156112bf57fe5b906000526020600020900154600460008973ffffffffffffffffffffffffffffffffffffffff1673ffffffffffffffffffffffffffffffffffffffff1681526020019081526020016000208281548110151561131757fe5b9060005260206000209001819055508080600101915050611223565b600460008873ffffffffffffffffffffffffffffffffffffffff1673ffffffffffffffffffffffffffffffffffffffff1681526020019081526020016000206001600460008a73ffffffffffffffffffffffffffffffffffffffff1673ffffffffffffffffffffffffffffffffffffffff16815260200190815260200160002080549050038154811015156113c457fe5b906000526020600020900160009055600460008873ffffffffffffffffffffffffffffffffffffffff1673ffffffffffffffffffffffffffffffffffffffff16815260200190815260200160002080548091906001900361142591906120cf565b5060019350611434565b600093505b5050509392505050565b6114466120fb565b61144e6120fb565b600080600a60008673ffffffffffffffffffffffffffffffffffffffff1673ffffffffffffffffffffffffffffffffffffffff168152602001908152602001600020600001600a60008773ffffffffffffffffffffffffffffffffffffffff1673ffffffffffffffffffffffffffffffffffffffff168152602001908152602001600020600101600a60008873ffffffffffffffffffffffffffffffffffffffff1673ffffffffffffffffffffffffffffffffffffffff1681526020019081526020016000206002015487838054600181600116156101000203166002900480601f0160208091040260200160405190810160405280929190818152602001828054600181600116156101000203166002900480156115ae5780601f10611583576101008083540402835291602001916115ae565b820191906000526020600020905b81548152906001019060200180831161159157829003601f168201915b50505050509350828054600181600116156101000203166002900480601f01602080910402602001604051908101604052809291908181526020018280546001816001161561010002031660029004801561164a5780601f1061161f5761010080835404028352916020019161164a565b820191906000526020600020905b81548152906001019060200180831161162d57829003601f168201915b5050505050925093509350935093509193509193565b60016020528060005260406000206000915090505481565b60008673ffffffffffffffffffffffffffffffffffffffff1660008087815260200190815260200160002060009054906101000a900473ffffffffffffffffffffffffffffffffffffffff1673ffffffffffffffffffffffffffffffffffffffff16141561184557600015156002600087815260200190815260200160002060009054906101000a900460ff16151514156118445760018202603c8402610e108602420101016001600087815260200190815260200160002081905550600160008681526020019081526020016000205442111515611843578560008087815260200190815260200160002060006101000a81548173ffffffffffffffffffffffffffffffffffffffff021916908373ffffffffffffffffffffffffffffffffffffffff16021790555060016002600087815260200190815260200160002060006101000a81548160ff0219169083151502179055506003600086815260200190815260200160002080548060010182816117f39190612077565b9160005260206000209001600088909190916101000a81548173ffffffffffffffffffffffffffffffffffffffff021916908373ffffffffffffffffffffffffffffffffffffffff160217905550505b5b5b9695505050505050565b60006020528060005260406000206000915054906101000a900473ffffffffffffffffffffffffffffffffffffffff1681565b61188a612063565b600460008373ffffffffffffffffffffffffffffffffffffffff1673ffffffffffffffffffffffffffffffffffffffff16815260200190815260200160002080548060200260200160405190810160405280929190818152602001828054801561191357602002820191906000526020600020905b8154815260200190600101908083116118ff575b50505050509050919050565b60076020528060005260406000206000915090505481565b60036020528160005260406000208181548110151561195257fe5b90600052602060002090016000915091509054906101000a900473ffffffffffffffffffffffffffffffffffffffff1681565b8160008083815260200190815260200160002060006101000a81548173ffffffffffffffffffffffffffffffffffffffff021916908373ffffffffffffffffffffffffffffffffffffffff16021790555060006002600083815260200190815260200160002060006101000a81548160ff021916908315150217905550600360008281526020019081526020016000208054806001018281611a279190612077565b9160005260206000209001600084909190916101000a81548173ffffffffffffffffffffffffffffffffffffffff021916908373ffffffffffffffffffffffffffffffffffffffff160217905550505050565b600060056000838152602001908152602001600020549050919050565b60056020528060005260406000206000915090505481565b6000600a60008573ffffffffffffffffffffffffffffffffffffffff1673ffffffffffffffffffffffffffffffffffffffff1681526020019081526020016000206002015490508082101515611c785781600760008673ffffffffffffffffffffffffffffffffffffffff1673ffffffffffffffffffffffffffffffffffffffff16815260200190815260200160002081905550600860008481526020019081526020016000208054806001018281611b6891906120a3565b916000526020600020900160008490919091505550600960008481526020019081526020016000208054806001018281611ba29190612077565b9160005260206000209001600086909190916101000a81548173ffffffffffffffffffffffffffffffffffffffff021916908373ffffffffffffffffffffffffffffffffffffffff160217905550506005600084815260200190815260200160002054821115611c7757816005600085815260200190815260200160002081905550836006600085815260200190815260200160002060006101000a81548173ffffffffffffffffffffffffffffffffffffffff021916908373ffffffffffffffffffffffffffffffffffffffff1602179055505b5b50505050565b60008073ffffffffffffffffffffffffffffffffffffffff1660008087815260200190815260200160002060009054906101000a900473ffffffffffffffffffffffffffffffffffffffff1673ffffffffffffffffffffffffffffffffffffffff161415611e8e578560008087815260200190815260200160002060006101000a81548173ffffffffffffffffffffffffffffffffffffffff021916908373ffffffffffffffffffffffffffffffffffffffff160217905550600360008681526020019081526020016000208054806001018281611d5c9190612077565b9160005260206000209001600088909190916101000a81548173ffffffffffffffffffffffffffffffffffffffff021916908373ffffffffffffffffffffffffffffffffffffffff16021790555050600a60008773ffffffffffffffffffffffffffffffffffffffff1673ffffffffffffffffffffffffffffffffffffffff168152602001908152602001600020905083816000019080519060200190611e0492919061210f565b5082816001019080519060200190611e1d92919061210f565b50818160020181905550600460008773ffffffffffffffffffffffffffffffffffffffff1673ffffffffffffffffffffffffffffffffffffffff1681526020019081526020016000208054806001018281611e7891906120a3565b9160005260206000209001600087909190915055505b505050505050565b600a602052806000526040600020600091509050806000019080600101908060020154905083565b60066020528060005260406000206000915054906101000a900473ffffffffffffffffffffffffffffffffffffffff1681565b600080600083815260200190815260200160002060009054906101000a900473ffffffffffffffffffffffffffffffffffffffff169050919050565b600460205281600052604060002081815481101515611f4857fe5b9060005260206000209001600091509150505481565b600860205281600052604060002081815481101515611f7957fe5b9060005260206000209001600091509150505481565b600080600084815260200190815260200160002060009054906101000a900473ffffffffffffffffffffffffffffffffffffffff169050611fd1818385610f89565b50505050565b600960205281600052604060002081815481101515611ff257fe5b90600052602060002090016000915091509054906101000a900473ffffffffffffffffffffffffffffffffffffffff1681565b60006002600083815260200190815260200160002060009054906101000a900460ff169050919050565b602060405190810160405280600081525090565b602060405190810160405280600081525090565b81548183558181151161209e5781836000526020600020918201910161209d919061218f565b5b505050565b8154818355818115116120ca578183600052602060002091820191016120c9919061218f565b5b505050565b8154818355818115116120f6578183600052602060002091820191016120f5919061218f565b5b505050565b602060405190810160405280600081525090565b828054600181600116156101000203166002900490600052602060002090601f016020900481019282601f1061215057805160ff191683800117855561217e565b8280016001018555821561217e579182015b8281111561217d578251825591602001919060010190612162565b5b50905061218b919061218f565b5090565b6121b191905b808211156121ad576000816000905550600101612195565b5090565b905600a165627a7a72305820b8d2c356d32d8935147eec9567903f1e5aae8c2aab4341450c4fb5a2fa62cc1c0029",
  "source": "pragma solidity ^0.4.17;\n\ncontract Adoption {\n // uint i=0;\n   \n   mapping(uint=>address) public pid_to_address_map;\n   mapping(uint=>uint) public prop_id_to_contract_end;\n   mapping(uint=>bool) public pid_to_rented_map;\n   //mapping(uint=>address) public pid_to_old_owner;\n   mapping(uint=>address[]) public chain_of_custody;\n   mapping(address=>uint[]) public account_to_pid_map;\n   mapping(uint=>uint) public auction_amount;\n   mapping(uint=>address) public auction_owner;\n   mapping(address=>uint) public bidding_price_map;\n//uint[] public bid_prices;\n//address[] public bid_amount;\nmapping(uint=>uint[]) public bid_prices;\nmapping(uint=>address[]) public bid_account;\n   //mapping(uint=>mapping(address=>uint)) public pid_to_account_to_price_map;\n\n   struct Name  //rename it as User_info\n   {\n    string fname;\n    string lname;\n    uint amount;\n   }\n\n/*   struct User_info\n   {\n    string fname;\n    string lname;\n    string amount;\n   }*/\n\n   mapping(address=>Name) public account_to_user_name;  //for showing name with account number in chain of custody\n  // mapping(uint=>uint) public pid_to_noOfOwners;\n\n   //event checkLease(uint prop_id,uint indexed contract_end);\n  \nfunction addProperty(address owner, uint propid,string first_name,string last_name,uint amt) public {\n        if(pid_to_address_map[propid] == 0x0000000000000000000000000000000000000000){\n            pid_to_address_map[propid]=owner;\n            chain_of_custody[propid].push(owner);\n            var info=account_to_user_name[owner];\n            info.fname=first_name;\n            info.lname=last_name;\n            info.amount=amt;\n            account_to_pid_map[owner].push(propid);\n           // pid_to_noOfOwners[propid]=1;\n            //address_to_pid_map[owner]=propid;\n            //return (account_to_user_name[owner].fname,account_to_user_name[owner].lname);\n           \n        }\n        \n    }\n\nfunction getList(uint prop_id) public view returns (uint[],address[])\n{\n  return (bid_prices[prop_id],bid_account[prop_id]);\n}\nfunction getBidAmount(address acc) public view returns (uint)\n{\n  return bidding_price_map[acc];\n}\n\n\nfunction getAuctionPrice(uint propid) public view returns (uint)\n{\n  return auction_amount[propid];\n}\n\nfunction getAuctionWinner(uint propid) public view returns (address)\n{\n  return auction_owner[propid];\n}\n\nfunction getProperties(address addr) public view returns (uint[])\n{\n  return account_to_pid_map[addr];\n}\n\nfunction getUserFirstName(address addr) public view returns (string,string,uint,address)\n{\n  return (account_to_user_name[addr].fname,account_to_user_name[addr].lname,account_to_user_name[addr].amount,addr);\n}\n\n\nfunction getAddress(uint prop_id) public view returns (address)\n{\n  return pid_to_address_map[prop_id];\n}\n\nfunction getRented(uint prop_id) public view returns (bool)\n{\n  return pid_to_rented_map[prop_id];\n}\n\n\nfunction getChainOfCustody(uint prop_id) public view returns (address[])\n{\n  return (chain_of_custody[prop_id]);\n}\n\n/*function getCount(uint prop_id) public view returns(uint length) {\n    return chain_of_custody[prop_id].length;\n  }*/\n\n\n\nfunction buyProperty(address owner, address buyer, uint propid) public payable returns (bool) {\n\n        uint temp;\n        if(pid_to_address_map[propid] == owner)\n        {\n            owner.transfer(msg.value);\n            pid_to_address_map[propid] = buyer;\n            chain_of_custody[propid].push(buyer);\n            account_to_pid_map[buyer].push(propid);\n            for(uint j=0;j<account_to_pid_map[owner].length;j++)\n            {\n              if(account_to_pid_map[owner][j]==propid)\n              {\n                temp=j;\n              }\n            }\n\n            for(uint i=temp;i<account_to_pid_map[owner].length-1;i++)\n            {\n              account_to_pid_map[owner][i]=account_to_pid_map[owner][i+1];\n            }\n\n            delete account_to_pid_map[owner][account_to_pid_map[owner].length-1];\n            account_to_pid_map[owner].length--;\n            //pid_to_noOfOwners[propid]++;\n            //checkLease(propid,pid_to_address_map[propid]);\n            return true;\n        }\n\n        return false;\n    }\n\n\nfunction leasePropertyStart(address owner,address renter,uint prop_id,uint years_after,uint weeks_after,uint days_after) public returns (uint)\n        {\n          \n            \n\n            if(pid_to_address_map[prop_id]==owner)\n            {\n                if(pid_to_rented_map[prop_id]==false)\n                  {\n                   prop_id_to_contract_end[prop_id]=now + years_after* 1 hours + weeks_after * 1 minutes + days_after * 1 seconds;\n                   //contract_end=now + years_after* 1 years + weeks_after * 1 weeks + days_after * 1 days;\n                    if(now<=prop_id_to_contract_end[prop_id])\n                    {\n                        //pid_to_old_owner[prop_id]=owner;\n                        pid_to_address_map[prop_id]=renter;\n                        pid_to_rented_map[prop_id]=true;\n                        chain_of_custody[prop_id].push(renter);\n                        //pid_to_noOfOwners[prop_id]++;\n                    }\n                }\n            }\n\n            \n            \n            //checkLease(prop_id,prop_id_to_contract_end[prop_id]);\n            \n    }\n\n\n    function leasePropertyEnd(address owner,/*address renter,*/uint prop_id) public\n    {\n      /*if(pid_to_address_map[prop_id]==renter && now>prop_id_to_contract_end[prop_id])\n            {*/\n                //pid_to_old_owner[prop_id]=0x0000000000000000000000000000000000000000;\n                pid_to_address_map[prop_id]=owner;\n                pid_to_rented_map[prop_id]=false;\n                chain_of_custody[prop_id].push(owner);\n/*                pid_to_noOfOwners[prop_id]--;\n                delete chain_of_custody[prop_id][pid_to_noOfOwners[prop_id]];*/\n        \n            /*}*/\n            \n            \n    }\n\n\n\nfunction auction(address account,uint prop_id,uint price) public \n{\n\n\n  uint base_amount=account_to_user_name[account].amount;  //the amount the sender expects for the property while registering\n  if(price>=base_amount)\n  {\n    bidding_price_map[account]=price;\n    bid_prices[prop_id].push(price);\n    bid_account[prop_id].push(account);\n   // pid_to_account_to_price_map[prop_id][account]=price;\n    if(price>auction_amount[prop_id])\n    {\n      auction_amount[prop_id]=price;\n      auction_owner[prop_id]=account;\n    }\n  }   \n  \n}\n\nfunction endAuction(uint prop_id,address account) public\n{\n  address owner=pid_to_address_map[prop_id];\n  buyProperty(owner,account,prop_id);\n}\n\n\n}\n",
  "sourcePath": "/home/rishabh/M/BlockchainAssetManagement/PropertyBazaar/contracts/Adoption.sol",
  "compiler": {
    "name": "solc",
    "version": "0.4.19+commit.c4cbbb05.Emscripten.clang"
  },
  "schemaVersion": "1.0.1",
  "updatedAt": "2018-06-04T07:06:03.200Z"
}