{
  "contractName": "Adoption",
  "abi": [
    {
      "constant": true,
      "inputs": [
        {
          "name": "",
          "type": "uint256"
        }
      ],
      "name": "pid_to_rented_map",
      "outputs": [
        {
          "name": "",
          "type": "bool"
        }
      ],
      "payable": false,
      "stateMutability": "view",
      "type": "function"
    },
    {
      "constant": true,
      "inputs": [
        {
          "name": "",
          "type": "uint256"
        }
      ],
      "name": "prop_id_to_contract_end",
      "outputs": [
        {
          "name": "",
          "type": "uint256"
        }
      ],
      "payable": false,
      "stateMutability": "view",
      "type": "function"
    },
    {
      "constant": true,
      "inputs": [
        {
          "name": "",
          "type": "uint256"
        }
      ],
      "name": "pid_to_address_map",
      "outputs": [
        {
          "name": "",
          "type": "address"
        }
      ],
      "payable": false,
      "stateMutability": "view",
      "type": "function"
    },
    {
      "constant": true,
      "inputs": [
        {
          "name": "",
          "type": "uint256"
        },
        {
          "name": "",
          "type": "uint256"
        }
      ],
      "name": "chain_of_custody",
      "outputs": [
        {
          "name": "",
          "type": "address"
        }
      ],
      "payable": false,
      "stateMutability": "view",
      "type": "function"
    },
    {
      "constant": true,
      "inputs": [
        {
          "name": "",
          "type": "uint256"
        }
      ],
      "name": "pid_to_old_owner",
      "outputs": [
        {
          "name": "",
          "type": "address"
        }
      ],
      "payable": false,
      "stateMutability": "view",
      "type": "function"
    },
    {
      "constant": false,
      "inputs": [
        {
          "name": "owner",
          "type": "address"
        },
        {
          "name": "propid",
          "type": "uint256"
        }
      ],
      "name": "addProperty",
      "outputs": [
        {
          "name": "",
          "type": "bool"
        }
      ],
      "payable": false,
      "stateMutability": "nonpayable",
      "type": "function"
    },
    {
      "constant": true,
      "inputs": [
        {
          "name": "prop_id",
          "type": "uint256"
        }
      ],
      "name": "getAddress",
      "outputs": [
        {
          "name": "",
          "type": "address"
        }
      ],
      "payable": false,
      "stateMutability": "view",
      "type": "function"
    },
    {
      "constant": true,
      "inputs": [
        {
          "name": "prop_id",
          "type": "uint256"
        }
      ],
      "name": "getRented",
      "outputs": [
        {
          "name": "",
          "type": "bool"
        }
      ],
      "payable": false,
      "stateMutability": "view",
      "type": "function"
    },
    {
      "constant": true,
      "inputs": [
        {
          "name": "prop_id",
          "type": "uint256"
        }
      ],
      "name": "getOldOwner",
      "outputs": [
        {
          "name": "",
          "type": "address"
        }
      ],
      "payable": false,
      "stateMutability": "view",
      "type": "function"
    },
    {
      "constant": true,
      "inputs": [
        {
          "name": "prop_id",
          "type": "uint256"
        }
      ],
      "name": "getChainOfCustody",
      "outputs": [
        {
          "name": "",
          "type": "address[]"
        }
      ],
      "payable": false,
      "stateMutability": "view",
      "type": "function"
    },
    {
      "constant": true,
      "inputs": [
        {
          "name": "prop_id",
          "type": "uint256"
        }
      ],
      "name": "getCount",
      "outputs": [
        {
          "name": "length",
          "type": "uint256"
        }
      ],
      "payable": false,
      "stateMutability": "view",
      "type": "function"
    },
    {
      "constant": false,
      "inputs": [
        {
          "name": "owner",
          "type": "address"
        },
        {
          "name": "buyer",
          "type": "address"
        },
        {
          "name": "propid",
          "type": "uint256"
        }
      ],
      "name": "buyProperty",
      "outputs": [
        {
          "name": "",
          "type": "bool"
        }
      ],
      "payable": false,
      "stateMutability": "nonpayable",
      "type": "function"
    },
    {
      "constant": false,
      "inputs": [
        {
          "name": "owner",
          "type": "address"
        },
        {
          "name": "renter",
          "type": "address"
        },
        {
          "name": "prop_id",
          "type": "uint256"
        },
        {
          "name": "years_after",
          "type": "uint256"
        },
        {
          "name": "weeks_after",
          "type": "uint256"
        },
        {
          "name": "days_after",
          "type": "uint256"
        }
      ],
      "name": "leasePropertyStart",
      "outputs": [
        {
          "name": "",
          "type": "uint256"
        }
      ],
      "payable": false,
      "stateMutability": "nonpayable",
      "type": "function"
    },
    {
      "constant": false,
      "inputs": [
        {
          "name": "owner",
          "type": "address"
        },
        {
          "name": "prop_id",
          "type": "uint256"
        }
      ],
      "name": "leasePropertyEnd",
      "outputs": [],
      "payable": false,
      "stateMutability": "nonpayable",
      "type": "function"
    }
  ],
  "bytecode": "0x606060405260008055341561001357600080fd5b610eb1806100226000396000f3006060604052600436106100d0576000357c0100000000000000000000000000000000000000000000000000000000900463ffffffff16806308c23366146100d55780630eab57661461014d5780632189a1b21461018857806342e77eae14610201578063472d8de0146102385780634cea1b1c146102c8578063677aeb621461032b5780636f1db8e114610397578063b93f9b0a146103d9578063bc1dfa691461043c578063c235391814610496578063e388cb3a146104cd578063eee9366414610530578063f5f2c3d51461056b575b600080fd5b34156100e057600080fd5b6100f660048080359060200190919050506105ce565b6040518080602001828103825283818151815260200191508051906020019060200280838360005b8381101561013957808201518184015260208101905061011e565b505050509050019250505060405180910390f35b341561015857600080fd5b61016e6004808035906020019091905050610675565b604051808215151515815260200191505060405180910390f35b341561019357600080fd5b6101e7600480803573ffffffffffffffffffffffffffffffffffffffff1690602001909190803573ffffffffffffffffffffffffffffffffffffffff16906020019091908035906020019091905050610695565b604051808215151515815260200191505060405180910390f35b341561020c57600080fd5b61022260048080359060200190919050506107d9565b6040518082815260200191505060405180910390f35b341561024357600080fd5b6102b2600480803573ffffffffffffffffffffffffffffffffffffffff1690602001909190803573ffffffffffffffffffffffffffffffffffffffff169060200190919080359060200190919080359060200190919080359060200190919080359060200190919050506107f1565b6040518082815260200191505060405180910390f35b34156102d357600080fd5b6102e96004808035906020019091905050610a1c565b604051808273ffffffffffffffffffffffffffffffffffffffff1673ffffffffffffffffffffffffffffffffffffffff16815260200191505060405180910390f35b341561033657600080fd5b6103556004808035906020019091908035906020019091905050610a4f565b604051808273ffffffffffffffffffffffffffffffffffffffff1673ffffffffffffffffffffffffffffffffffffffff16815260200191505060405180910390f35b34156103a257600080fd5b6103d7600480803573ffffffffffffffffffffffffffffffffffffffff16906020019091908035906020019091905050610a9d565b005b34156103e457600080fd5b6103fa6004808035906020019091905050610be6565b604051808273ffffffffffffffffffffffffffffffffffffffff1673ffffffffffffffffffffffffffffffffffffffff16815260200191505060405180910390f35b341561044757600080fd5b61047c600480803573ffffffffffffffffffffffffffffffffffffffff16906020019091908035906020019091905050610c23565b604051808215151515815260200191505060405180910390f35b34156104a157600080fd5b6104b76004808035906020019091905050610d66565b6040518082815260200191505060405180910390f35b34156104d857600080fd5b6104ee6004808035906020019091905050610d86565b604051808273ffffffffffffffffffffffffffffffffffffffff1673ffffffffffffffffffffffffffffffffffffffff16815260200191505060405180910390f35b341561053b57600080fd5b6105516004808035906020019091905050610db9565b604051808215151515815260200191505060405180910390f35b341561057657600080fd5b61058c6004808035906020019091905050610de3565b604051808273ffffffffffffffffffffffffffffffffffffffff1673ffffffffffffffffffffffffffffffffffffffff16815260200191505060405180910390f35b6105d6610e20565b6005600083815260200190815260200160002080548060200260200160405190810160405280929190818152602001828054801561066957602002820191906000526020600020905b8160009054906101000a900473ffffffffffffffffffffffffffffffffffffffff1673ffffffffffffffffffffffffffffffffffffffff168152602001906001019080831161061f575b50505050509050919050565b60036020528060005260406000206000915054906101000a900460ff1681565b60008373ffffffffffffffffffffffffffffffffffffffff166001600084815260200190815260200160002060009054906101000a900473ffffffffffffffffffffffffffffffffffffffff1673ffffffffffffffffffffffffffffffffffffffff1614156107cd57826001600084815260200190815260200160002060006101000a81548173ffffffffffffffffffffffffffffffffffffffff021916908373ffffffffffffffffffffffffffffffffffffffff1602179055506005600083815260200190815260200160002080548060010182816107759190610e34565b9160005260206000209001600085909190916101000a81548173ffffffffffffffffffffffffffffffffffffffff021916908373ffffffffffffffffffffffffffffffffffffffff16021790555050600190506107d2565b600090505b9392505050565b60026020528060005260406000206000915090505481565b60008673ffffffffffffffffffffffffffffffffffffffff166001600087815260200190815260200160002060009054906101000a900473ffffffffffffffffffffffffffffffffffffffff1673ffffffffffffffffffffffffffffffffffffffff161415610a1257600015156003600087815260200190815260200160002060009054906101000a900460ff1615151415610a115760018202603c8402610e108602420101016002600087815260200190815260200160002081905550600260008681526020019081526020016000205442111515610a1057866004600087815260200190815260200160002060006101000a81548173ffffffffffffffffffffffffffffffffffffffff021916908373ffffffffffffffffffffffffffffffffffffffff160217905550856001600087815260200190815260200160002060006101000a81548173ffffffffffffffffffffffffffffffffffffffff021916908373ffffffffffffffffffffffffffffffffffffffff16021790555060016003600087815260200190815260200160002060006101000a81548160ff0219169083151502179055506005600086815260200190815260200160002080548060010182816109c09190610e34565b9160005260206000209001600088909190916101000a81548173ffffffffffffffffffffffffffffffffffffffff021916908373ffffffffffffffffffffffffffffffffffffffff160217905550505b5b5b9695505050505050565b60016020528060005260406000206000915054906101000a900473ffffffffffffffffffffffffffffffffffffffff1681565b600560205281600052604060002081815481101515610a6a57fe5b90600052602060002090016000915091509054906101000a900473ffffffffffffffffffffffffffffffffffffffff1681565b60006004600083815260200190815260200160002060006101000a81548173ffffffffffffffffffffffffffffffffffffffff021916908373ffffffffffffffffffffffffffffffffffffffff160217905550816001600083815260200190815260200160002060006101000a81548173ffffffffffffffffffffffffffffffffffffffff021916908373ffffffffffffffffffffffffffffffffffffffff16021790555060006003600083815260200190815260200160002060006101000a81548160ff021916908315150217905550600560008281526020019081526020016000208054806001018281610b939190610e34565b9160005260206000209001600084909190916101000a81548173ffffffffffffffffffffffffffffffffffffffff021916908373ffffffffffffffffffffffffffffffffffffffff160217905550505050565b60006001600083815260200190815260200160002060009054906101000a900473ffffffffffffffffffffffffffffffffffffffff169050919050565b60008073ffffffffffffffffffffffffffffffffffffffff166001600084815260200190815260200160002060009054906101000a900473ffffffffffffffffffffffffffffffffffffffff1673ffffffffffffffffffffffffffffffffffffffff161415610d5b57826001600084815260200190815260200160002060006101000a81548173ffffffffffffffffffffffffffffffffffffffff021916908373ffffffffffffffffffffffffffffffffffffffff160217905550600560008381526020019081526020016000208054806001018281610d039190610e34565b9160005260206000209001600085909190916101000a81548173ffffffffffffffffffffffffffffffffffffffff021916908373ffffffffffffffffffffffffffffffffffffffff1602179055505060019050610d60565b600090505b92915050565b600060056000838152602001908152602001600020805490509050919050565b60046020528060005260406000206000915054906101000a900473ffffffffffffffffffffffffffffffffffffffff1681565b60006003600083815260200190815260200160002060009054906101000a900460ff169050919050565b60006004600083815260200190815260200160002060009054906101000a900473ffffffffffffffffffffffffffffffffffffffff169050919050565b602060405190810160405280600081525090565b815481835581811511610e5b57818360005260206000209182019101610e5a9190610e60565b5b505050565b610e8291905b80821115610e7e576000816000905550600101610e66565b5090565b905600a165627a7a723058205a7ff87de534c4c1dc309080ae3718715b7123e986cb1093193fb8c69794b4d20029",
  "source": "pragma solidity ^0.4.17;\n\ncontract Adoption {\n  uint i=0;\n   mapping(uint=>address) public pid_to_address_map;\n   mapping(uint=>uint) public prop_id_to_contract_end;\n   mapping(uint=>bool) public pid_to_rented_map;\n   mapping(uint=>address) public pid_to_old_owner;\n   mapping(uint=>address[]) public chain_of_custody;\n  // mapping(uint=>uint) public pid_to_noOfOwners;\n\n   //event checkLease(uint prop_id,uint indexed contract_end);\n  \nfunction addProperty(address owner, uint propid) public returns (bool) {\n        if(pid_to_address_map[propid] == 0x0000000000000000000000000000000000000000){\n            pid_to_address_map[propid]=owner;\n            chain_of_custody[propid].push(owner);\n           // pid_to_noOfOwners[propid]=1;\n            //address_to_pid_map[owner]=propid;\n            return true;\n        }\n        return false;\n    }\n\nfunction getAddress(uint prop_id) public view returns (address)\n{\n  return pid_to_address_map[prop_id];\n}\n\nfunction getRented(uint prop_id) public view returns (bool)\n{\n  return pid_to_rented_map[prop_id];\n}\n\nfunction getOldOwner(uint prop_id) public view returns (address)\n{\n  return pid_to_old_owner[prop_id];\n}\n\nfunction getChainOfCustody(uint prop_id) public view returns (address[])\n{\n  return chain_of_custody[prop_id];\n}\n\nfunction getCount(uint prop_id) public view returns(uint length) {\n    return chain_of_custody[prop_id].length;\n  }\n\nfunction buyProperty(address owner, address buyer, uint propid) public returns (bool) {\n\n        if(pid_to_address_map[propid] == owner)\n        {\n            pid_to_address_map[propid] = buyer;\n            chain_of_custody[propid].push(buyer);\n            //pid_to_noOfOwners[propid]++;\n            //checkLease(propid,pid_to_address_map[propid]);\n            return true;\n        }\n\n        return false;\n    }\n\n\nfunction leasePropertyStart(address owner,address renter,uint prop_id,uint years_after,uint weeks_after,uint days_after) public returns (uint)\n        {\n          \n            \n\n            if(pid_to_address_map[prop_id]==owner)\n            {\n                if(pid_to_rented_map[prop_id]==false)\n                {\n                   prop_id_to_contract_end[prop_id]=now + years_after* 1 hours + weeks_after * 1 minutes + days_after * 1 seconds;\n                   //contract_end=now + years_after* 1 years + weeks_after * 1 weeks + days_after * 1 days;\n                    if(now<=prop_id_to_contract_end[prop_id])\n                    {\n                        pid_to_old_owner[prop_id]=owner;\n                        pid_to_address_map[prop_id]=renter;\n                        pid_to_rented_map[prop_id]=true;\n                        chain_of_custody[prop_id].push(renter);\n                        //pid_to_noOfOwners[prop_id]++;\n                    }\n                }\n            }\n\n            \n            \n            //checkLease(prop_id,prop_id_to_contract_end[prop_id]);\n            \n    }\n\n\n    function leasePropertyEnd(address owner,/*address renter,*/uint prop_id) public\n    {\n      /*if(pid_to_address_map[prop_id]==renter && now>prop_id_to_contract_end[prop_id])\n            {*/\n                pid_to_old_owner[prop_id]=0x0000000000000000000000000000000000000000;\n                pid_to_address_map[prop_id]=owner;\n                pid_to_rented_map[prop_id]=false;\n                chain_of_custody[prop_id].push(owner);\n/*                pid_to_noOfOwners[prop_id]--;\n                delete chain_of_custody[prop_id][pid_to_noOfOwners[prop_id]];*/\n        \n            /*}*/\n            \n            \n    }\n\n\n}\n\n\n\n",
  "sourcePath": "/home/ankit/NodeBlock/PropertyBazaar/contracts/Adoption.sol",
  "compiler": {
    "name": "solc",
    "version": "0.4.19+commit.c4cbbb05.Emscripten.clang"
  },
  "schemaVersion": "2.0.0",
  "updatedAt": "2018-03-14T06:16:10.981Z"
}