{
  "contractName": "Adoption",
  "abi": [
    {
      "constant": true,
      "inputs": [
        {
          "name": "",
          "type": "uint256"
        }
      ],
      "name": "pid_to_rented_map",
      "outputs": [
        {
          "name": "",
          "type": "bool"
        }
      ],
      "payable": false,
      "stateMutability": "view",
      "type": "function"
    },
    {
      "constant": true,
      "inputs": [
        {
          "name": "",
          "type": "uint256"
        }
      ],
      "name": "prop_id_to_contract_end",
      "outputs": [
        {
          "name": "",
          "type": "uint256"
        }
      ],
      "payable": false,
      "stateMutability": "view",
      "type": "function"
    },
    {
      "constant": true,
      "inputs": [
        {
          "name": "",
          "type": "uint256"
        }
      ],
      "name": "pid_to_address_map",
      "outputs": [
        {
          "name": "",
          "type": "address"
        }
      ],
      "payable": false,
      "stateMutability": "view",
      "type": "function"
    },
    {
      "constant": true,
      "inputs": [
        {
          "name": "",
          "type": "uint256"
        },
        {
          "name": "",
          "type": "uint256"
        }
      ],
      "name": "chain_of_custody",
      "outputs": [
        {
          "name": "",
          "type": "address"
        }
      ],
      "payable": false,
      "stateMutability": "view",
      "type": "function"
    },
    {
      "constant": true,
      "inputs": [
        {
          "name": "",
          "type": "address"
        }
      ],
      "name": "account_to_user_name",
      "outputs": [
        {
          "name": "fname",
          "type": "string"
        },
        {
          "name": "lname",
          "type": "string"
        }
      ],
      "payable": false,
      "stateMutability": "view",
      "type": "function"
    },
    {
      "constant": true,
      "inputs": [
        {
          "name": "",
          "type": "address"
        },
        {
          "name": "",
          "type": "uint256"
        }
      ],
      "name": "account_to_pid_map",
      "outputs": [
        {
          "name": "",
          "type": "uint256"
        }
      ],
      "payable": false,
      "stateMutability": "view",
      "type": "function"
    },
    {
      "constant": true,
      "inputs": [
        {
          "name": "",
          "type": "uint256"
        }
      ],
      "name": "pid_to_old_owner",
      "outputs": [
        {
          "name": "",
          "type": "address"
        }
      ],
      "payable": false,
      "stateMutability": "view",
      "type": "function"
    },
    {
      "constant": false,
      "inputs": [
        {
          "name": "owner",
          "type": "address"
        },
        {
          "name": "propid",
          "type": "uint256"
        },
        {
          "name": "first_name",
          "type": "string"
        },
        {
          "name": "last_name",
          "type": "string"
        }
      ],
      "name": "addProperty",
      "outputs": [],
      "payable": false,
      "stateMutability": "nonpayable",
      "type": "function"
    },
    {
      "constant": true,
      "inputs": [
        {
          "name": "addr",
          "type": "address"
        }
      ],
      "name": "getProperties",
      "outputs": [
        {
          "name": "",
          "type": "uint256[]"
        }
      ],
      "payable": false,
      "stateMutability": "view",
      "type": "function"
    },
    {
      "constant": true,
      "inputs": [
        {
          "name": "addr",
          "type": "address"
        }
      ],
      "name": "getUserFirstName",
      "outputs": [
        {
          "name": "",
          "type": "string"
        },
        {
          "name": "",
          "type": "string"
        },
        {
          "name": "",
          "type": "address"
        }
      ],
      "payable": false,
      "stateMutability": "view",
      "type": "function"
    },
    {
      "constant": true,
      "inputs": [
        {
          "name": "prop_id",
          "type": "uint256"
        }
      ],
      "name": "getAddress",
      "outputs": [
        {
          "name": "",
          "type": "address"
        }
      ],
      "payable": false,
      "stateMutability": "view",
      "type": "function"
    },
    {
      "constant": true,
      "inputs": [
        {
          "name": "prop_id",
          "type": "uint256"
        }
      ],
      "name": "getRented",
      "outputs": [
        {
          "name": "",
          "type": "bool"
        }
      ],
      "payable": false,
      "stateMutability": "view",
      "type": "function"
    },
    {
      "constant": true,
      "inputs": [
        {
          "name": "prop_id",
          "type": "uint256"
        }
      ],
      "name": "getOldOwner",
      "outputs": [
        {
          "name": "",
          "type": "address"
        }
      ],
      "payable": false,
      "stateMutability": "view",
      "type": "function"
    },
    {
      "constant": true,
      "inputs": [
        {
          "name": "prop_id",
          "type": "uint256"
        }
      ],
      "name": "getChainOfCustody",
      "outputs": [
        {
          "name": "",
          "type": "address[]"
        }
      ],
      "payable": false,
      "stateMutability": "view",
      "type": "function"
    },
    {
      "constant": true,
      "inputs": [
        {
          "name": "prop_id",
          "type": "uint256"
        }
      ],
      "name": "getCount",
      "outputs": [
        {
          "name": "length",
          "type": "uint256"
        }
      ],
      "payable": false,
      "stateMutability": "view",
      "type": "function"
    },
    {
      "constant": false,
      "inputs": [
        {
          "name": "owner",
          "type": "address"
        },
        {
          "name": "buyer",
          "type": "address"
        },
        {
          "name": "propid",
          "type": "uint256"
        }
      ],
      "name": "buyProperty",
      "outputs": [
        {
          "name": "",
          "type": "bool"
        }
      ],
      "payable": true,
      "stateMutability": "payable",
      "type": "function"
    },
    {
      "constant": false,
      "inputs": [
        {
          "name": "owner",
          "type": "address"
        },
        {
          "name": "renter",
          "type": "address"
        },
        {
          "name": "prop_id",
          "type": "uint256"
        },
        {
          "name": "years_after",
          "type": "uint256"
        },
        {
          "name": "weeks_after",
          "type": "uint256"
        },
        {
          "name": "days_after",
          "type": "uint256"
        }
      ],
      "name": "leasePropertyStart",
      "outputs": [
        {
          "name": "",
          "type": "uint256"
        }
      ],
      "payable": false,
      "stateMutability": "nonpayable",
      "type": "function"
    },
    {
      "constant": false,
      "inputs": [
        {
          "name": "owner",
          "type": "address"
        },
        {
          "name": "prop_id",
          "type": "uint256"
        }
      ],
      "name": "leasePropertyEnd",
      "outputs": [],
      "payable": false,
      "stateMutability": "nonpayable",
      "type": "function"
    }
  ],
  "bytecode": "0x6060604052341561000f57600080fd5b611ad18061001e6000396000f3006060604052600436106100fc576000357c0100000000000000000000000000000000000000000000000000000000900463ffffffff16806308c23366146101015780630eab5766146101795780632189a1b2146101b45780632c757ff61461022257806342e77eae14610373578063472d8de0146103aa5780634cea1b1c1461043a578063513fa8641461049d5780635c57cad21461052b578063677aeb62146105f35780636f1db8e11461065f578063b3373473146106a1578063b93f9b0a146107f9578063c23539181461085c578063c5d97e9914610893578063e388cb3a146108e9578063eee936641461094c578063f5f2c3d514610987575b600080fd5b341561010c57600080fd5b61012260048080359060200190919050506109ea565b6040518080602001828103825283818151815260200191508051906020019060200280838360005b8381101561016557808201518184015260208101905061014a565b505050509050019250505060405180910390f35b341561018457600080fd5b61019a6004808035906020019091905050610a91565b604051808215151515815260200191505060405180910390f35b610208600480803573ffffffffffffffffffffffffffffffffffffffff1690602001909190803573ffffffffffffffffffffffffffffffffffffffff16906020019091908035906020019091905050610ab1565b604051808215151515815260200191505060405180910390f35b341561022d57600080fd5b610259600480803573ffffffffffffffffffffffffffffffffffffffff16906020019091905050610f66565b6040518080602001806020018473ffffffffffffffffffffffffffffffffffffffff1673ffffffffffffffffffffffffffffffffffffffff168152602001838103835286818151815260200191508051906020019080838360005b838110156102cf5780820151818401526020810190506102b4565b50505050905090810190601f1680156102fc5780820380516001836020036101000a031916815260200191505b50838103825285818151815260200191508051906020019080838360005b8381101561033557808201518184015260208101905061031a565b50505050905090810190601f1680156103625780820380516001836020036101000a031916815260200191505b509550505050505060405180910390f35b341561037e57600080fd5b6103946004808035906020019091905050611142565b6040518082815260200191505060405180910390f35b34156103b557600080fd5b610424600480803573ffffffffffffffffffffffffffffffffffffffff1690602001909190803573ffffffffffffffffffffffffffffffffffffffff1690602001909190803590602001909190803590602001909190803590602001909190803590602001909190505061115a565b6040518082815260200191505060405180910390f35b341561044557600080fd5b61045b6004808035906020019091905050611383565b604051808273ffffffffffffffffffffffffffffffffffffffff1673ffffffffffffffffffffffffffffffffffffffff16815260200191505060405180910390f35b34156104a857600080fd5b6104d4600480803573ffffffffffffffffffffffffffffffffffffffff169060200190919050506113b6565b6040518080602001828103825283818151815260200191508051906020019060200280838360005b838110156105175780820151818401526020810190506104fc565b505050509050019250505060405180910390f35b341561053657600080fd5b6105f1600480803573ffffffffffffffffffffffffffffffffffffffff1690602001909190803590602001909190803590602001908201803590602001908080601f0160208091040260200160405190810160405280939291908181526020018383808284378201915050505050509190803590602001908201803590602001908080601f01602080910402602001604051908101604052809392919081815260200183838082843782019150505050505091905050611453565b005b34156105fe57600080fd5b61061d6004808035906020019091908035906020019091905050611661565b604051808273ffffffffffffffffffffffffffffffffffffffff1673ffffffffffffffffffffffffffffffffffffffff16815260200191505060405180910390f35b341561066a57600080fd5b61069f600480803573ffffffffffffffffffffffffffffffffffffffff169060200190919080359060200190919050506116af565b005b34156106ac57600080fd5b6106d8600480803573ffffffffffffffffffffffffffffffffffffffff169060200190919050506117f7565b6040518080602001806020018381038352858181546001816001161561010002031660029004815260200191508054600181600116156101000203166002900480156107655780601f1061073a57610100808354040283529160200191610765565b820191906000526020600020905b81548152906001019060200180831161074857829003601f168201915b50508381038252848181546001816001161561010002031660029004815260200191508054600181600116156101000203166002900480156107e85780601f106107bd576101008083540402835291602001916107e8565b820191906000526020600020905b8154815290600101906020018083116107cb57829003601f168201915b505094505050505060405180910390f35b341561080457600080fd5b61081a6004808035906020019091905050611819565b604051808273ffffffffffffffffffffffffffffffffffffffff1673ffffffffffffffffffffffffffffffffffffffff16815260200191505060405180910390f35b341561086757600080fd5b61087d6004808035906020019091905050611855565b6040518082815260200191505060405180910390f35b341561089e57600080fd5b6108d3600480803573ffffffffffffffffffffffffffffffffffffffff16906020019091908035906020019091905050611875565b6040518082815260200191505060405180910390f35b34156108f457600080fd5b61090a60048080359060200190919050506118a6565b604051808273ffffffffffffffffffffffffffffffffffffffff1673ffffffffffffffffffffffffffffffffffffffff16815260200191505060405180910390f35b341561095757600080fd5b61096d60048080359060200190919050506118d9565b604051808215151515815260200191505060405180910390f35b341561099257600080fd5b6109a86004808035906020019091905050611903565b604051808273ffffffffffffffffffffffffffffffffffffffff1673ffffffffffffffffffffffffffffffffffffffff16815260200191505060405180910390f35b6109f2611940565b60046000838152602001908152602001600020805480602002602001604051908101604052809291908181526020018280548015610a8557602002820191906000526020600020905b8160009054906101000a900473ffffffffffffffffffffffffffffffffffffffff1673ffffffffffffffffffffffffffffffffffffffff1681526020019060010190808311610a3b575b50505050509050919050565b60026020528060005260406000206000915054906101000a900460ff1681565b6000806000808673ffffffffffffffffffffffffffffffffffffffff1660008087815260200190815260200160002060009054906101000a900473ffffffffffffffffffffffffffffffffffffffff1673ffffffffffffffffffffffffffffffffffffffff161415610f57578673ffffffffffffffffffffffffffffffffffffffff166108fc349081150290604051600060405180830381858888f193505050501515610b5d57600080fd5b8560008087815260200190815260200160002060006101000a81548173ffffffffffffffffffffffffffffffffffffffff021916908373ffffffffffffffffffffffffffffffffffffffff160217905550600460008681526020019081526020016000208054806001018281610bd39190611954565b9160005260206000209001600088909190916101000a81548173ffffffffffffffffffffffffffffffffffffffff021916908373ffffffffffffffffffffffffffffffffffffffff16021790555050600560008773ffffffffffffffffffffffffffffffffffffffff1673ffffffffffffffffffffffffffffffffffffffff1681526020019081526020016000208054806001018281610c739190611980565b916000526020600020900160008790919091505550600091505b600560008873ffffffffffffffffffffffffffffffffffffffff1673ffffffffffffffffffffffffffffffffffffffff16815260200190815260200160002080549050821015610d475784600560008973ffffffffffffffffffffffffffffffffffffffff1673ffffffffffffffffffffffffffffffffffffffff16815260200190815260200160002083815481101515610d2457fe5b9060005260206000209001541415610d3a578192505b8180600101925050610c8d565b8290505b6001600560008973ffffffffffffffffffffffffffffffffffffffff1673ffffffffffffffffffffffffffffffffffffffff1681526020019081526020016000208054905003811015610e5b57600560008873ffffffffffffffffffffffffffffffffffffffff1673ffffffffffffffffffffffffffffffffffffffff16815260200190815260200160002060018201815481101515610de757fe5b906000526020600020900154600560008973ffffffffffffffffffffffffffffffffffffffff1673ffffffffffffffffffffffffffffffffffffffff16815260200190815260200160002082815481101515610e3f57fe5b9060005260206000209001819055508080600101915050610d4b565b600560008873ffffffffffffffffffffffffffffffffffffffff1673ffffffffffffffffffffffffffffffffffffffff1681526020019081526020016000206001600560008a73ffffffffffffffffffffffffffffffffffffffff1673ffffffffffffffffffffffffffffffffffffffff1681526020019081526020016000208054905003815481101515610eec57fe5b906000526020600020900160009055600560008873ffffffffffffffffffffffffffffffffffffffff1673ffffffffffffffffffffffffffffffffffffffff168152602001908152602001600020805480919060019003610f4d91906119ac565b5060019350610f5c565b600093505b5050509392505050565b610f6e6119d8565b610f766119d8565b6000600660008573ffffffffffffffffffffffffffffffffffffffff1673ffffffffffffffffffffffffffffffffffffffff168152602001908152602001600020600001600660008673ffffffffffffffffffffffffffffffffffffffff1673ffffffffffffffffffffffffffffffffffffffff16815260200190815260200160002060010185828054600181600116156101000203166002900480601f0160208091040260200160405190810160405280929190818152602001828054600181600116156101000203166002900480156110925780601f1061106757610100808354040283529160200191611092565b820191906000526020600020905b81548152906001019060200180831161107557829003601f168201915b50505050509250818054600181600116156101000203166002900480601f01602080910402602001604051908101604052809291908181526020018280546001816001161561010002031660029004801561112e5780601f106111035761010080835404028352916020019161112e565b820191906000526020600020905b81548152906001019060200180831161111157829003601f168201915b505050505091509250925092509193909250565b60016020528060005260406000206000915090505481565b60008673ffffffffffffffffffffffffffffffffffffffff1660008087815260200190815260200160002060009054906101000a900473ffffffffffffffffffffffffffffffffffffffff1673ffffffffffffffffffffffffffffffffffffffff16141561137957600015156002600087815260200190815260200160002060009054906101000a900460ff16151514156113785760018202603c8402610e10860242010101600160008781526020019081526020016000208190555060016000868152602001908152602001600020544211151561137757866003600087815260200190815260200160002060006101000a81548173ffffffffffffffffffffffffffffffffffffffff021916908373ffffffffffffffffffffffffffffffffffffffff1602179055508560008087815260200190815260200160002060006101000a81548173ffffffffffffffffffffffffffffffffffffffff021916908373ffffffffffffffffffffffffffffffffffffffff16021790555060016002600087815260200190815260200160002060006101000a81548160ff0219169083151502179055506004600086815260200190815260200160002080548060010182816113279190611954565b9160005260206000209001600088909190916101000a81548173ffffffffffffffffffffffffffffffffffffffff021916908373ffffffffffffffffffffffffffffffffffffffff160217905550505b5b5b9695505050505050565b60006020528060005260406000206000915054906101000a900473ffffffffffffffffffffffffffffffffffffffff1681565b6113be6119ec565b600560008373ffffffffffffffffffffffffffffffffffffffff1673ffffffffffffffffffffffffffffffffffffffff16815260200190815260200160002080548060200260200160405190810160405280929190818152602001828054801561144757602002820191906000526020600020905b815481526020019060010190808311611433575b50505050509050919050565b60008073ffffffffffffffffffffffffffffffffffffffff1660008086815260200190815260200160002060009054906101000a900473ffffffffffffffffffffffffffffffffffffffff1673ffffffffffffffffffffffffffffffffffffffff16141561165a578460008086815260200190815260200160002060006101000a81548173ffffffffffffffffffffffffffffffffffffffff021916908373ffffffffffffffffffffffffffffffffffffffff1602179055506004600085815260200190815260200160002080548060010182816115319190611954565b9160005260206000209001600087909190916101000a81548173ffffffffffffffffffffffffffffffffffffffff021916908373ffffffffffffffffffffffffffffffffffffffff16021790555050600660008673ffffffffffffffffffffffffffffffffffffffff1673ffffffffffffffffffffffffffffffffffffffff1681526020019081526020016000209050828160000190805190602001906115d9929190611a00565b50818160010190805190602001906115f2929190611a00565b50600560008673ffffffffffffffffffffffffffffffffffffffff1673ffffffffffffffffffffffffffffffffffffffff16815260200190815260200160002080548060010182816116449190611980565b9160005260206000209001600086909190915055505b5050505050565b60046020528160005260406000208181548110151561167c57fe5b90600052602060002090016000915091509054906101000a900473ffffffffffffffffffffffffffffffffffffffff1681565b60006003600083815260200190815260200160002060006101000a81548173ffffffffffffffffffffffffffffffffffffffff021916908373ffffffffffffffffffffffffffffffffffffffff1602179055508160008083815260200190815260200160002060006101000a81548173ffffffffffffffffffffffffffffffffffffffff021916908373ffffffffffffffffffffffffffffffffffffffff16021790555060006002600083815260200190815260200160002060006101000a81548160ff0219169083151502179055506004600082815260200190815260200160002080548060010182816117a49190611954565b9160005260206000209001600084909190916101000a81548173ffffffffffffffffffffffffffffffffffffffff021916908373ffffffffffffffffffffffffffffffffffffffff160217905550505050565b6006602052806000526040600020600091509050806000019080600101905082565b600080600083815260200190815260200160002060009054906101000a900473ffffffffffffffffffffffffffffffffffffffff169050919050565b600060046000838152602001908152602001600020805490509050919050565b60056020528160005260406000208181548110151561189057fe5b9060005260206000209001600091509150505481565b60036020528060005260406000206000915054906101000a900473ffffffffffffffffffffffffffffffffffffffff1681565b60006002600083815260200190815260200160002060009054906101000a900460ff169050919050565b60006003600083815260200190815260200160002060009054906101000a900473ffffffffffffffffffffffffffffffffffffffff169050919050565b602060405190810160405280600081525090565b81548183558181151161197b5781836000526020600020918201910161197a9190611a80565b5b505050565b8154818355818115116119a7578183600052602060002091820191016119a69190611a80565b5b505050565b8154818355818115116119d3578183600052602060002091820191016119d29190611a80565b5b505050565b602060405190810160405280600081525090565b602060405190810160405280600081525090565b828054600181600116156101000203166002900490600052602060002090601f016020900481019282601f10611a4157805160ff1916838001178555611a6f565b82800160010185558215611a6f579182015b82811115611a6e578251825591602001919060010190611a53565b5b509050611a7c9190611a80565b5090565b611aa291905b80821115611a9e576000816000905550600101611a86565b5090565b905600a165627a7a72305820775acd04963d632a2601cc44bda52d810eee119a034cd75632ba239c527beb7d0029",
  "source": "pragma solidity ^0.4.17;\n\ncontract Adoption {\n // uint i=0;\n   mapping(uint=>address) public pid_to_address_map;\n   mapping(uint=>uint) public prop_id_to_contract_end;\n   mapping(uint=>bool) public pid_to_rented_map;\n   mapping(uint=>address) public pid_to_old_owner;\n   mapping(uint=>address[]) public chain_of_custody;\n   mapping(address=>uint[]) public account_to_pid_map;\n\n   struct Name\n   {\n    string fname;\n    string lname;\n   }\n\n   mapping(address=>Name) public account_to_user_name;\n  // mapping(uint=>uint) public pid_to_noOfOwners;\n\n   //event checkLease(uint prop_id,uint indexed contract_end);\n  \nfunction addProperty(address owner, uint propid,string first_name,string last_name) public {\n        if(pid_to_address_map[propid] == 0x0000000000000000000000000000000000000000){\n            pid_to_address_map[propid]=owner;\n            chain_of_custody[propid].push(owner);\n            var info=account_to_user_name[owner];\n            info.fname=first_name;\n            info.lname=last_name;\n            account_to_pid_map[owner].push(propid);\n           // pid_to_noOfOwners[propid]=1;\n            //address_to_pid_map[owner]=propid;\n            //return (account_to_user_name[owner].fname,account_to_user_name[owner].lname);\n           \n        }\n        \n    }\n\nfunction getProperties(address addr) public view returns (uint[])\n{\n  return account_to_pid_map[addr];\n}\n\nfunction getUserFirstName(address addr) public view returns (string,string,address)\n{\n  return (account_to_user_name[addr].fname,account_to_user_name[addr].lname,addr);\n}\n\n\nfunction getAddress(uint prop_id) public view returns (address)\n{\n  return pid_to_address_map[prop_id];\n}\n\nfunction getRented(uint prop_id) public view returns (bool)\n{\n  return pid_to_rented_map[prop_id];\n}\n\nfunction getOldOwner(uint prop_id) public view returns (address)\n{\n  return pid_to_old_owner[prop_id];\n}\n\nfunction getChainOfCustody(uint prop_id) public view returns (address[])\n{\n  return (chain_of_custody[prop_id]);\n}\n\nfunction getCount(uint prop_id) public view returns(uint length) {\n    return chain_of_custody[prop_id].length;\n  }\n\nfunction buyProperty(address owner, address buyer, uint propid) public payable returns (bool) {\n\n        uint temp;\n        if(pid_to_address_map[propid] == owner)\n        {\n            owner.transfer(msg.value);\n            pid_to_address_map[propid] = buyer;\n            chain_of_custody[propid].push(buyer);\n            account_to_pid_map[buyer].push(propid);\n            for(uint j=0;j<account_to_pid_map[owner].length;j++)\n            {\n              if(account_to_pid_map[owner][j]==propid)\n              {\n                temp=j;\n              }\n            }\n\n            for(uint i=temp;i<account_to_pid_map[owner].length-1;i++)\n            {\n              account_to_pid_map[owner][i]=account_to_pid_map[owner][i+1];\n            }\n\n            delete account_to_pid_map[owner][account_to_pid_map[owner].length-1];\n            account_to_pid_map[owner].length--;\n            //pid_to_noOfOwners[propid]++;\n            //checkLease(propid,pid_to_address_map[propid]);\n            return true;\n        }\n\n        return false;\n    }\n\n\nfunction leasePropertyStart(address owner,address renter,uint prop_id,uint years_after,uint weeks_after,uint days_after) public returns (uint)\n        {\n          \n            \n\n            if(pid_to_address_map[prop_id]==owner)\n            {\n                if(pid_to_rented_map[prop_id]==false)\n                {\n                   prop_id_to_contract_end[prop_id]=now + years_after* 1 hours + weeks_after * 1 minutes + days_after * 1 seconds;\n                   //contract_end=now + years_after* 1 years + weeks_after * 1 weeks + days_after * 1 days;\n                    if(now<=prop_id_to_contract_end[prop_id])\n                    {\n                        pid_to_old_owner[prop_id]=owner;\n                        pid_to_address_map[prop_id]=renter;\n                        pid_to_rented_map[prop_id]=true;\n                        chain_of_custody[prop_id].push(renter);\n                        //pid_to_noOfOwners[prop_id]++;\n                    }\n                }\n            }\n\n            \n            \n            //checkLease(prop_id,prop_id_to_contract_end[prop_id]);\n            \n    }\n\n\n    function leasePropertyEnd(address owner,/*address renter,*/uint prop_id) public\n    {\n      /*if(pid_to_address_map[prop_id]==renter && now>prop_id_to_contract_end[prop_id])\n            {*/\n                pid_to_old_owner[prop_id]=0x0000000000000000000000000000000000000000;\n                pid_to_address_map[prop_id]=owner;\n                pid_to_rented_map[prop_id]=false;\n                chain_of_custody[prop_id].push(owner);\n/*                pid_to_noOfOwners[prop_id]--;\n                delete chain_of_custody[prop_id][pid_to_noOfOwners[prop_id]];*/\n        \n            /*}*/\n            \n            \n    }\n\n\n}\n\n\n\n",
  "sourcePath": "/home/anand/copy/BlockchainAssetManagement/PropertyBazaar/contracts/Adoption.sol",
  "compiler": {
    "name": "solc",
    "version": "0.4.19+commit.c4cbbb05.Emscripten.clang"
  },
  "schemaVersion": "2.0.0",
  "updatedAt": "2018-03-20T12:28:00.213Z"
}