{
  "contractName": "Adoption",
  "abi": [
    {
      "constant": true,
      "inputs": [
        {
          "name": "",
          "type": "uint256"
        }
      ],
      "name": "is_auctioned",
      "outputs": [
        {
          "name": "",
          "type": "bool"
        }
      ],
      "payable": false,
      "stateMutability": "view",
      "type": "function"
    },
    {
      "constant": true,
      "inputs": [
        {
          "name": "",
          "type": "uint256"
        }
      ],
      "name": "pid_to_rented_map",
      "outputs": [
        {
          "name": "",
          "type": "bool"
        }
      ],
      "payable": false,
      "stateMutability": "view",
      "type": "function"
    },
    {
      "constant": true,
      "inputs": [
        {
          "name": "",
          "type": "uint256"
        }
      ],
      "name": "prop_id_to_contract_end",
      "outputs": [
        {
          "name": "",
          "type": "uint256"
        }
      ],
      "payable": false,
      "stateMutability": "view",
      "type": "function"
    },
    {
      "constant": true,
      "inputs": [
        {
          "name": "",
          "type": "uint256"
        }
      ],
      "name": "pid_to_address_map",
      "outputs": [
        {
          "name": "",
          "type": "address"
        }
      ],
      "payable": false,
      "stateMutability": "view",
      "type": "function"
    },
    {
      "constant": true,
      "inputs": [
        {
          "name": "",
          "type": "address"
        }
      ],
      "name": "bidding_price_map",
      "outputs": [
        {
          "name": "",
          "type": "uint256"
        }
      ],
      "payable": false,
      "stateMutability": "view",
      "type": "function"
    },
    {
      "constant": true,
      "inputs": [
        {
          "name": "",
          "type": "uint256"
        },
        {
          "name": "",
          "type": "uint256"
        }
      ],
      "name": "chain_of_custody",
      "outputs": [
        {
          "name": "",
          "type": "address"
        }
      ],
      "payable": false,
      "stateMutability": "view",
      "type": "function"
    },
    {
      "constant": true,
      "inputs": [
        {
          "name": "",
          "type": "uint256"
        }
      ],
      "name": "auction_amount",
      "outputs": [
        {
          "name": "",
          "type": "uint256"
        }
      ],
      "payable": false,
      "stateMutability": "view",
      "type": "function"
    },
    {
      "constant": true,
      "inputs": [
        {
          "name": "",
          "type": "address"
        }
      ],
      "name": "account_to_user_name",
      "outputs": [
        {
          "name": "fname",
          "type": "string"
        },
        {
          "name": "lname",
          "type": "string"
        },
        {
          "name": "amount",
          "type": "uint256"
        }
      ],
      "payable": false,
      "stateMutability": "view",
      "type": "function"
    },
    {
      "constant": true,
      "inputs": [
        {
          "name": "",
          "type": "uint256"
        }
      ],
      "name": "auction_owner",
      "outputs": [
        {
          "name": "",
          "type": "address"
        }
      ],
      "payable": false,
      "stateMutability": "view",
      "type": "function"
    },
    {
      "constant": true,
      "inputs": [
        {
          "name": "",
          "type": "address"
        },
        {
          "name": "",
          "type": "uint256"
        }
      ],
      "name": "account_to_pid_map",
      "outputs": [
        {
          "name": "",
          "type": "uint256"
        }
      ],
      "payable": false,
      "stateMutability": "view",
      "type": "function"
    },
    {
      "constant": true,
      "inputs": [
        {
          "name": "",
          "type": "uint256"
        },
        {
          "name": "",
          "type": "uint256"
        }
      ],
      "name": "bid_prices",
      "outputs": [
        {
          "name": "",
          "type": "uint256"
        }
      ],
      "payable": false,
      "stateMutability": "view",
      "type": "function"
    },
    {
      "constant": true,
      "inputs": [
        {
          "name": "",
          "type": "uint256"
        },
        {
          "name": "",
          "type": "uint256"
        }
      ],
      "name": "bid_account",
      "outputs": [
        {
          "name": "",
          "type": "address"
        }
      ],
      "payable": false,
      "stateMutability": "view",
      "type": "function"
    },
    {
      "constant": false,
      "inputs": [
        {
          "name": "owner",
          "type": "address"
        },
        {
          "name": "propid",
          "type": "uint256"
        },
        {
          "name": "first_name",
          "type": "string"
        },
        {
          "name": "last_name",
          "type": "string"
        },
        {
          "name": "amt",
          "type": "uint256"
        }
      ],
      "name": "addProperty",
      "outputs": [],
      "payable": false,
      "stateMutability": "nonpayable",
      "type": "function"
    },
    {
      "constant": true,
      "inputs": [
        {
          "name": "prop_id",
          "type": "uint256"
        }
      ],
      "name": "getAuctioned",
      "outputs": [
        {
          "name": "",
          "type": "uint256"
        },
        {
          "name": "",
          "type": "bool"
        }
      ],
      "payable": false,
      "stateMutability": "view",
      "type": "function"
    },
    {
      "constant": true,
      "inputs": [
        {
          "name": "prop_id",
          "type": "uint256"
        }
      ],
      "name": "getList",
      "outputs": [
        {
          "name": "",
          "type": "uint256[]"
        },
        {
          "name": "",
          "type": "address[]"
        }
      ],
      "payable": false,
      "stateMutability": "view",
      "type": "function"
    },
    {
      "constant": true,
      "inputs": [
        {
          "name": "acc",
          "type": "address"
        }
      ],
      "name": "getBidAmount",
      "outputs": [
        {
          "name": "",
          "type": "uint256"
        }
      ],
      "payable": false,
      "stateMutability": "view",
      "type": "function"
    },
    {
      "constant": true,
      "inputs": [
        {
          "name": "propid",
          "type": "uint256"
        }
      ],
      "name": "getAuctionPrice",
      "outputs": [
        {
          "name": "",
          "type": "uint256"
        }
      ],
      "payable": false,
      "stateMutability": "view",
      "type": "function"
    },
    {
      "constant": true,
      "inputs": [
        {
          "name": "propid",
          "type": "uint256"
        }
      ],
      "name": "getAuctionWinner",
      "outputs": [
        {
          "name": "",
          "type": "address"
        }
      ],
      "payable": false,
      "stateMutability": "view",
      "type": "function"
    },
    {
      "constant": true,
      "inputs": [
        {
          "name": "addr",
          "type": "address"
        }
      ],
      "name": "getProperties",
      "outputs": [
        {
          "name": "",
          "type": "uint256[]"
        }
      ],
      "payable": false,
      "stateMutability": "view",
      "type": "function"
    },
    {
      "constant": true,
      "inputs": [
        {
          "name": "addr",
          "type": "address"
        }
      ],
      "name": "getUserFirstName",
      "outputs": [
        {
          "name": "",
          "type": "string"
        },
        {
          "name": "",
          "type": "string"
        },
        {
          "name": "",
          "type": "uint256"
        },
        {
          "name": "",
          "type": "address"
        }
      ],
      "payable": false,
      "stateMutability": "view",
      "type": "function"
    },
    {
      "constant": true,
      "inputs": [
        {
          "name": "prop_id",
          "type": "uint256"
        }
      ],
      "name": "getAddress",
      "outputs": [
        {
          "name": "",
          "type": "address"
        }
      ],
      "payable": false,
      "stateMutability": "view",
      "type": "function"
    },
    {
      "constant": true,
      "inputs": [
        {
          "name": "prop_id",
          "type": "uint256"
        }
      ],
      "name": "getRented",
      "outputs": [
        {
          "name": "",
          "type": "bool"
        }
      ],
      "payable": false,
      "stateMutability": "view",
      "type": "function"
    },
    {
      "constant": true,
      "inputs": [
        {
          "name": "prop_id",
          "type": "uint256"
        }
      ],
      "name": "getChainOfCustody",
      "outputs": [
        {
          "name": "",
          "type": "address[]"
        }
      ],
      "payable": false,
      "stateMutability": "view",
      "type": "function"
    },
    {
      "constant": false,
      "inputs": [
        {
          "name": "owner",
          "type": "address"
        },
        {
          "name": "buyer",
          "type": "address"
        },
        {
          "name": "propid",
          "type": "uint256"
        }
      ],
      "name": "buyProperty",
      "outputs": [
        {
          "name": "",
          "type": "bool"
        }
      ],
      "payable": true,
      "stateMutability": "payable",
      "type": "function"
    },
    {
      "constant": false,
      "inputs": [
        {
          "name": "owner",
          "type": "address"
        },
        {
          "name": "renter",
          "type": "address"
        },
        {
          "name": "prop_id",
          "type": "uint256"
        },
        {
          "name": "years_after",
          "type": "uint256"
        },
        {
          "name": "weeks_after",
          "type": "uint256"
        },
        {
          "name": "days_after",
          "type": "uint256"
        }
      ],
      "name": "leasePropertyStart",
      "outputs": [
        {
          "name": "",
          "type": "uint256"
        }
      ],
      "payable": false,
      "stateMutability": "nonpayable",
      "type": "function"
    },
    {
      "constant": false,
      "inputs": [
        {
          "name": "owner",
          "type": "address"
        },
        {
          "name": "prop_id",
          "type": "uint256"
        }
      ],
      "name": "leasePropertyEnd",
      "outputs": [],
      "payable": false,
      "stateMutability": "nonpayable",
      "type": "function"
    },
    {
      "constant": false,
      "inputs": [
        {
          "name": "prop_id",
          "type": "uint256"
        }
      ],
      "name": "startAuction",
      "outputs": [],
      "payable": false,
      "stateMutability": "nonpayable",
      "type": "function"
    },
    {
      "constant": false,
      "inputs": [
        {
          "name": "account",
          "type": "address"
        },
        {
          "name": "prop_id",
          "type": "uint256"
        },
        {
          "name": "price",
          "type": "uint256"
        }
      ],
      "name": "auction",
      "outputs": [],
      "payable": false,
      "stateMutability": "nonpayable",
      "type": "function"
    },
    {
      "constant": false,
      "inputs": [
        {
          "name": "prop_id",
          "type": "uint256"
        },
        {
          "name": "account",
          "type": "address"
        }
      ],
      "name": "endAuction",
      "outputs": [],
      "payable": false,
      "stateMutability": "nonpayable",
      "type": "function"
    }
  ],
  "bytecode": "0x6060604052341561000f57600080fd5b61234a8061001e6000396000f300606060405260043610610175576000357c0100000000000000000000000000000000000000000000000000000000900463ffffffff168063065de74c1461017a578063083d353b1461019d57806308c23366146102005780630c2aa0e5146102785780630eab5766146102b357806313b9b598146102ee5780631ab5b3831461033b5780632189a1b2146103fb5780632c757ff61461046957806342e77eae146105c1578063472d8de0146105f85780634cea1b1c14610688578063513fa864146106eb5780636157b9b414610779578063677aeb62146107c65780636f1db8e114610832578063917d009e1461087457806391c06e03146108ab5780639d9ff845146108e2578063a628690f1461092d578063b3373473146109fe578063b8ea6bf614610b5d578063b93f9b0a14610bc0578063bab5ce6514610c23578063c5d97e9914610c65578063cbbf212614610cbb578063cbf8455d14610cfb578063d6739bbe14610d3d578063eee9366414610da9575b600080fd5b341561018557600080fd5b61019b6004808035906020019091905050610de4565b005b34156101a857600080fd5b6101be6004808035906020019091905050610e13565b604051808273ffffffffffffffffffffffffffffffffffffffff1673ffffffffffffffffffffffffffffffffffffffff16815260200191505060405180910390f35b341561020b57600080fd5b6102216004808035906020019091905050610e50565b6040518080602001828103825283818151815260200191508051906020019060200280838360005b83811015610264578082015181840152602081019050610249565b505050509050019250505060405180910390f35b341561028357600080fd5b6102996004808035906020019091905050610ef7565b604051808215151515815260200191505060405180910390f35b34156102be57600080fd5b6102d46004808035906020019091905050610f17565b604051808215151515815260200191505060405180910390f35b34156102f957600080fd5b610325600480803573ffffffffffffffffffffffffffffffffffffffff16906020019091905050610f37565b6040518082815260200191505060405180910390f35b341561034657600080fd5b61035c6004808035906020019091905050610f80565b604051808060200180602001838103835285818151815260200191508051906020019060200280838360005b838110156103a3578082015181840152602081019050610388565b50505050905001838103825284818151815260200191508051906020019060200280838360005b838110156103e55780820151818401526020810190506103ca565b5050505090500194505050505060405180910390f35b61044f600480803573ffffffffffffffffffffffffffffffffffffffff1690602001909190803573ffffffffffffffffffffffffffffffffffffffff16906020019091908035906020019091905050611099565b604051808215151515815260200191505060405180910390f35b341561047457600080fd5b6104a0600480803573ffffffffffffffffffffffffffffffffffffffff1690602001909190505061154e565b6040518080602001806020018581526020018473ffffffffffffffffffffffffffffffffffffffff1673ffffffffffffffffffffffffffffffffffffffff168152602001838103835287818151815260200191508051906020019080838360005b8381101561051c578082015181840152602081019050610501565b50505050905090810190601f1680156105495780820380516001836020036101000a031916815260200191505b50838103825286818151815260200191508051906020019080838360005b83811015610582578082015181840152602081019050610567565b50505050905090810190601f1680156105af5780820380516001836020036101000a031916815260200191505b50965050505050505060405180910390f35b34156105cc57600080fd5b6105e26004808035906020019091905050611770565b6040518082815260200191505060405180910390f35b341561060357600080fd5b610672600480803573ffffffffffffffffffffffffffffffffffffffff1690602001909190803573ffffffffffffffffffffffffffffffffffffffff16906020019091908035906020019091908035906020019091908035906020019091908035906020019091905050611788565b6040518082815260200191505060405180910390f35b341561069357600080fd5b6106a9600480803590602001909190505061195f565b604051808273ffffffffffffffffffffffffffffffffffffffff1673ffffffffffffffffffffffffffffffffffffffff16815260200191505060405180910390f35b34156106f657600080fd5b610722600480803573ffffffffffffffffffffffffffffffffffffffff16906020019091905050611992565b6040518080602001828103825283818151815260200191508051906020019060200280838360005b8381101561076557808201518184015260208101905061074a565b505050509050019250505060405180910390f35b341561078457600080fd5b6107b0600480803573ffffffffffffffffffffffffffffffffffffffff16906020019091905050611a2f565b6040518082815260200191505060405180910390f35b34156107d157600080fd5b6107f06004808035906020019091908035906020019091905050611a47565b604051808273ffffffffffffffffffffffffffffffffffffffff1673ffffffffffffffffffffffffffffffffffffffff16815260200191505060405180910390f35b341561083d57600080fd5b610872600480803573ffffffffffffffffffffffffffffffffffffffff16906020019091908035906020019091905050611a95565b005b341561087f57600080fd5b6108956004808035906020019091905050611b8a565b6040518082815260200191505060405180910390f35b34156108b657600080fd5b6108cc6004808035906020019091905050611ba7565b6040518082815260200191505060405180910390f35b34156108ed57600080fd5b61092b600480803573ffffffffffffffffffffffffffffffffffffffff16906020019091908035906020019091908035906020019091905050611bbf565b005b341561093857600080fd5b6109fc600480803573ffffffffffffffffffffffffffffffffffffffff1690602001909190803590602001909190803590602001908201803590602001908080601f0160208091040260200160405190810160405280939291908181526020018383808284378201915050505050509190803590602001908201803590602001908080601f01602080910402602001604051908101604052809392919081815260200183838082843782019150505050505091908035906020019091905050611d8e565b005b3415610a0957600080fd5b610a35600480803573ffffffffffffffffffffffffffffffffffffffff16906020019091905050611fa6565b604051808060200180602001848152602001838103835286818154600181600116156101000203166002900481526020019150805460018160011615610100020316600290048015610ac85780601f10610a9d57610100808354040283529160200191610ac8565b820191906000526020600020905b815481529060010190602001808311610aab57829003601f168201915b5050838103825285818154600181600116156101000203166002900481526020019150805460018160011615610100020316600290048015610b4b5780601f10610b2057610100808354040283529160200191610b4b565b820191906000526020600020905b815481529060010190602001808311610b2e57829003601f168201915b50509550505050505060405180910390f35b3415610b6857600080fd5b610b7e6004808035906020019091905050611fce565b604051808273ffffffffffffffffffffffffffffffffffffffff1673ffffffffffffffffffffffffffffffffffffffff16815260200191505060405180910390f35b3415610bcb57600080fd5b610be16004808035906020019091905050612001565b604051808273ffffffffffffffffffffffffffffffffffffffff1673ffffffffffffffffffffffffffffffffffffffff16815260200191505060405180910390f35b3415610c2e57600080fd5b610c44600480803590602001909190505061203d565b60405180838152602001821515151581526020019250505060405180910390f35b3415610c7057600080fd5b610ca5600480803573ffffffffffffffffffffffffffffffffffffffff1690602001909190803590602001909190505061206b565b6040518082815260200191505060405180910390f35b3415610cc657600080fd5b610ce5600480803590602001909190803590602001909190505061209c565b6040518082815260200191505060405180910390f35b3415610d0657600080fd5b610d3b600480803590602001909190803573ffffffffffffffffffffffffffffffffffffffff169060200190919050506120cd565b005b3415610d4857600080fd5b610d676004808035906020019091908035906020019091905050612141565b604051808273ffffffffffffffffffffffffffffffffffffffff1673ffffffffffffffffffffffffffffffffffffffff16815260200191505060405180910390f35b3415610db457600080fd5b610dca600480803590602001909190505061218f565b604051808215151515815260200191505060405180910390f35b6001600a600083815260200190815260200160002060006101000a81548160ff02191690831515021790555050565b60006006600083815260200190815260200160002060009054906101000a900473ffffffffffffffffffffffffffffffffffffffff169050919050565b610e586121b9565b60036000838152602001908152602001600020805480602002602001604051908101604052809291908181526020018280548015610eeb57602002820191906000526020600020905b8160009054906101000a900473ffffffffffffffffffffffffffffffffffffffff1673ffffffffffffffffffffffffffffffffffffffff1681526020019060010190808311610ea1575b50505050509050919050565b600a6020528060005260406000206000915054906101000a900460ff1681565b60026020528060005260406000206000915054906101000a900460ff1681565b6000600760008373ffffffffffffffffffffffffffffffffffffffff1673ffffffffffffffffffffffffffffffffffffffff168152602001908152602001600020549050919050565b610f886121cd565b610f906121b9565b60086000848152602001908152602001600020600960008581526020019081526020016000208180548060200260200160405190810160405280929190818152602001828054801561100157602002820191906000526020600020905b815481526020019060010190808311610fed575b505050505091508080548060200260200160405190810160405280929190818152602001828054801561108957602002820191906000526020600020905b8160009054906101000a900473ffffffffffffffffffffffffffffffffffffffff1673ffffffffffffffffffffffffffffffffffffffff168152602001906001019080831161103f575b5050505050905091509150915091565b6000806000808673ffffffffffffffffffffffffffffffffffffffff1660008087815260200190815260200160002060009054906101000a900473ffffffffffffffffffffffffffffffffffffffff1673ffffffffffffffffffffffffffffffffffffffff16141561153f578673ffffffffffffffffffffffffffffffffffffffff166108fc349081150290604051600060405180830381858888f19350505050151561114557600080fd5b8560008087815260200190815260200160002060006101000a81548173ffffffffffffffffffffffffffffffffffffffff021916908373ffffffffffffffffffffffffffffffffffffffff1602179055506003600086815260200190815260200160002080548060010182816111bb91906121e1565b9160005260206000209001600088909190916101000a81548173ffffffffffffffffffffffffffffffffffffffff021916908373ffffffffffffffffffffffffffffffffffffffff16021790555050600460008773ffffffffffffffffffffffffffffffffffffffff1673ffffffffffffffffffffffffffffffffffffffff168152602001908152602001600020805480600101828161125b919061220d565b916000526020600020900160008790919091505550600091505b600460008873ffffffffffffffffffffffffffffffffffffffff1673ffffffffffffffffffffffffffffffffffffffff1681526020019081526020016000208054905082101561132f5784600460008973ffffffffffffffffffffffffffffffffffffffff1673ffffffffffffffffffffffffffffffffffffffff1681526020019081526020016000208381548110151561130c57fe5b9060005260206000209001541415611322578192505b8180600101925050611275565b8290505b6001600460008973ffffffffffffffffffffffffffffffffffffffff1673ffffffffffffffffffffffffffffffffffffffff168152602001908152602001600020805490500381101561144357600460008873ffffffffffffffffffffffffffffffffffffffff1673ffffffffffffffffffffffffffffffffffffffff168152602001908152602001600020600182018154811015156113cf57fe5b906000526020600020900154600460008973ffffffffffffffffffffffffffffffffffffffff1673ffffffffffffffffffffffffffffffffffffffff1681526020019081526020016000208281548110151561142757fe5b9060005260206000209001819055508080600101915050611333565b600460008873ffffffffffffffffffffffffffffffffffffffff1673ffffffffffffffffffffffffffffffffffffffff1681526020019081526020016000206001600460008a73ffffffffffffffffffffffffffffffffffffffff1673ffffffffffffffffffffffffffffffffffffffff16815260200190815260200160002080549050038154811015156114d457fe5b906000526020600020900160009055600460008873ffffffffffffffffffffffffffffffffffffffff1673ffffffffffffffffffffffffffffffffffffffff1681526020019081526020016000208054809190600190036115359190612239565b5060019350611544565b600093505b5050509392505050565b611556612265565b61155e612265565b600080600b60008673ffffffffffffffffffffffffffffffffffffffff1673ffffffffffffffffffffffffffffffffffffffff168152602001908152602001600020600001600b60008773ffffffffffffffffffffffffffffffffffffffff1673ffffffffffffffffffffffffffffffffffffffff168152602001908152602001600020600101600b60008873ffffffffffffffffffffffffffffffffffffffff1673ffffffffffffffffffffffffffffffffffffffff1681526020019081526020016000206002015487838054600181600116156101000203166002900480601f0160208091040260200160405190810160405280929190818152602001828054600181600116156101000203166002900480156116be5780601f10611693576101008083540402835291602001916116be565b820191906000526020600020905b8154815290600101906020018083116116a157829003601f168201915b50505050509350828054600181600116156101000203166002900480601f01602080910402602001604051908101604052809291908181526020018280546001816001161561010002031660029004801561175a5780601f1061172f5761010080835404028352916020019161175a565b820191906000526020600020905b81548152906001019060200180831161173d57829003601f168201915b5050505050925093509350935093509193509193565b60016020528060005260406000206000915090505481565b60008673ffffffffffffffffffffffffffffffffffffffff1660008087815260200190815260200160002060009054906101000a900473ffffffffffffffffffffffffffffffffffffffff1673ffffffffffffffffffffffffffffffffffffffff16141561195557600015156002600087815260200190815260200160002060009054906101000a900460ff16151514156119545760018202603c8402610e108602420101016001600087815260200190815260200160002081905550600160008681526020019081526020016000205442111515611953578560008087815260200190815260200160002060006101000a81548173ffffffffffffffffffffffffffffffffffffffff021916908373ffffffffffffffffffffffffffffffffffffffff16021790555060016002600087815260200190815260200160002060006101000a81548160ff02191690831515021790555060036000868152602001908152602001600020805480600101828161190391906121e1565b9160005260206000209001600088909190916101000a81548173ffffffffffffffffffffffffffffffffffffffff021916908373ffffffffffffffffffffffffffffffffffffffff160217905550505b5b5b9695505050505050565b60006020528060005260406000206000915054906101000a900473ffffffffffffffffffffffffffffffffffffffff1681565b61199a6121cd565b600460008373ffffffffffffffffffffffffffffffffffffffff1673ffffffffffffffffffffffffffffffffffffffff168152602001908152602001600020805480602002602001604051908101604052809291908181526020018280548015611a2357602002820191906000526020600020905b815481526020019060010190808311611a0f575b50505050509050919050565b60076020528060005260406000206000915090505481565b600360205281600052604060002081815481101515611a6257fe5b90600052602060002090016000915091509054906101000a900473ffffffffffffffffffffffffffffffffffffffff1681565b8160008083815260200190815260200160002060006101000a81548173ffffffffffffffffffffffffffffffffffffffff021916908373ffffffffffffffffffffffffffffffffffffffff16021790555060006002600083815260200190815260200160002060006101000a81548160ff021916908315150217905550600360008281526020019081526020016000208054806001018281611b3791906121e1565b9160005260206000209001600084909190916101000a81548173ffffffffffffffffffffffffffffffffffffffff021916908373ffffffffffffffffffffffffffffffffffffffff160217905550505050565b600060056000838152602001908152602001600020549050919050565b60056020528060005260406000206000915090505481565b6000600b60008573ffffffffffffffffffffffffffffffffffffffff1673ffffffffffffffffffffffffffffffffffffffff1681526020019081526020016000206002015490508082101515611d885781600760008673ffffffffffffffffffffffffffffffffffffffff1673ffffffffffffffffffffffffffffffffffffffff16815260200190815260200160002081905550600860008481526020019081526020016000208054806001018281611c78919061220d565b916000526020600020900160008490919091505550600960008481526020019081526020016000208054806001018281611cb291906121e1565b9160005260206000209001600086909190916101000a81548173ffffffffffffffffffffffffffffffffffffffff021916908373ffffffffffffffffffffffffffffffffffffffff160217905550506005600084815260200190815260200160002054821115611d8757816005600085815260200190815260200160002081905550836006600085815260200190815260200160002060006101000a81548173ffffffffffffffffffffffffffffffffffffffff021916908373ffffffffffffffffffffffffffffffffffffffff1602179055505b5b50505050565b60008073ffffffffffffffffffffffffffffffffffffffff1660008087815260200190815260200160002060009054906101000a900473ffffffffffffffffffffffffffffffffffffffff1673ffffffffffffffffffffffffffffffffffffffff161415611f9e578560008087815260200190815260200160002060006101000a81548173ffffffffffffffffffffffffffffffffffffffff021916908373ffffffffffffffffffffffffffffffffffffffff160217905550600360008681526020019081526020016000208054806001018281611e6c91906121e1565b9160005260206000209001600088909190916101000a81548173ffffffffffffffffffffffffffffffffffffffff021916908373ffffffffffffffffffffffffffffffffffffffff16021790555050600b60008773ffffffffffffffffffffffffffffffffffffffff1673ffffffffffffffffffffffffffffffffffffffff168152602001908152602001600020905083816000019080519060200190611f14929190612279565b5082816001019080519060200190611f2d929190612279565b50818160020181905550600460008773ffffffffffffffffffffffffffffffffffffffff1673ffffffffffffffffffffffffffffffffffffffff1681526020019081526020016000208054806001018281611f88919061220d565b9160005260206000209001600087909190915055505b505050505050565b600b602052806000526040600020600091509050806000019080600101908060020154905083565b60066020528060005260406000206000915054906101000a900473ffffffffffffffffffffffffffffffffffffffff1681565b600080600083815260200190815260200160002060009054906101000a900473ffffffffffffffffffffffffffffffffffffffff169050919050565b60008082600a600085815260200190815260200160002060009054906101000a900460ff1691509150915091565b60046020528160005260406000208181548110151561208657fe5b9060005260206000209001600091509150505481565b6008602052816000526040600020818154811015156120b757fe5b9060005260206000209001600091509150505481565b600080600084815260200190815260200160002060009054906101000a900473ffffffffffffffffffffffffffffffffffffffff16905061210f818385611099565b506000600a600085815260200190815260200160002060006101000a81548160ff021916908315150217905550505050565b60096020528160005260406000208181548110151561215c57fe5b90600052602060002090016000915091509054906101000a900473ffffffffffffffffffffffffffffffffffffffff1681565b60006002600083815260200190815260200160002060009054906101000a900460ff169050919050565b602060405190810160405280600081525090565b602060405190810160405280600081525090565b8154818355818115116122085781836000526020600020918201910161220791906122f9565b5b505050565b8154818355818115116122345781836000526020600020918201910161223391906122f9565b5b505050565b8154818355818115116122605781836000526020600020918201910161225f91906122f9565b5b505050565b602060405190810160405280600081525090565b828054600181600116156101000203166002900490600052602060002090601f016020900481019282601f106122ba57805160ff19168380011785556122e8565b828001600101855582156122e8579182015b828111156122e75782518255916020019190600101906122cc565b5b5090506122f591906122f9565b5090565b61231b91905b808211156123175760008160009055506001016122ff565b5090565b905600a165627a7a7230582037dc97a405b514779f84aef7c9bbcda6e6cb998ed8150ca31852fb07aeaefdfb0029",
  "source": "pragma solidity ^0.4.17;\n\ncontract Adoption {\n // uint i=0;\n   \n   mapping(uint=>address) public pid_to_address_map;\n   mapping(uint=>uint) public prop_id_to_contract_end;\n   mapping(uint=>bool) public pid_to_rented_map;\n   //mapping(uint=>address) public pid_to_old_owner;\n   mapping(uint=>address[]) public chain_of_custody;\n   mapping(address=>uint[]) public account_to_pid_map;\n   mapping(uint=>uint) public auction_amount;\n   mapping(uint=>address) public auction_owner;\n   mapping(address=>uint) public bidding_price_map;\n   mapping(uint=>uint[]) public bid_prices;\n   mapping(uint=>address[]) public bid_account;\n\n   mapping(uint=>bool) public is_auctioned;\n   //mapping(uint=>mapping(address=>uint)) public pid_to_account_to_price_map;\n\n   struct Name  //rename it as User_info\n   {\n    string fname;\n    string lname;\n    uint amount;\n   }\n\n/*   struct User_info\n   {\n    string fname;\n    string lname;\n    string amount;\n   }*/\n\n   mapping(address=>Name) public account_to_user_name;  //for showing name with account number in chain of custody\n  // mapping(uint=>uint) public pid_to_noOfOwners;\n\n   //event checkLease(uint prop_id,uint indexed contract_end);\n  \nfunction addProperty(address owner, uint propid,string first_name,string last_name,uint amt) public {\n        if(pid_to_address_map[propid] == 0x0000000000000000000000000000000000000000){\n            pid_to_address_map[propid]=owner;\n            chain_of_custody[propid].push(owner);\n            var info=account_to_user_name[owner];\n            info.fname=first_name;\n            info.lname=last_name;\n            info.amount=amt;\n            account_to_pid_map[owner].push(propid);\n           // pid_to_noOfOwners[propid]=1;\n            //address_to_pid_map[owner]=propid;\n            //return (account_to_user_name[owner].fname,account_to_user_name[owner].lname);\n           \n        }\n        \n    }\n\nfunction getAuctioned(uint prop_id) public view returns (uint,bool)\n{\n  return (prop_id,is_auctioned[prop_id]);\n}\n\nfunction getList(uint prop_id) public view returns (uint[],address[])\n{\n  return (bid_prices[prop_id],bid_account[prop_id]);\n}\nfunction getBidAmount(address acc) public view returns (uint)\n{\n  return bidding_price_map[acc];\n}\n\n\nfunction getAuctionPrice(uint propid) public view returns (uint)\n{\n  return auction_amount[propid];\n}\n\nfunction getAuctionWinner(uint propid) public view returns (address)\n{\n  return auction_owner[propid];\n}\n\nfunction getProperties(address addr) public view returns (uint[])\n{\n  return account_to_pid_map[addr];\n}\n\nfunction getUserFirstName(address addr) public view returns (string,string,uint,address)\n{\n  return (account_to_user_name[addr].fname,account_to_user_name[addr].lname,account_to_user_name[addr].amount,addr);\n}\n\n\nfunction getAddress(uint prop_id) public view returns (address)\n{\n  return pid_to_address_map[prop_id];\n}\n\nfunction getRented(uint prop_id) public view returns (bool)\n{\n  return pid_to_rented_map[prop_id];\n}\n\n\nfunction getChainOfCustody(uint prop_id) public view returns (address[])\n{\n  return (chain_of_custody[prop_id]);\n}\n\n/*function getCount(uint prop_id) public view returns(uint length) {\n    return chain_of_custody[prop_id].length;\n  }*/\n\n\n\nfunction buyProperty(address owner, address buyer, uint propid) public payable returns (bool) {\n\n        uint temp;\n        if(pid_to_address_map[propid] == owner)\n        {\n            owner.transfer(msg.value);\n            pid_to_address_map[propid] = buyer;\n            chain_of_custody[propid].push(buyer);\n            account_to_pid_map[buyer].push(propid);\n            for(uint j=0;j<account_to_pid_map[owner].length;j++)\n            {\n              if(account_to_pid_map[owner][j]==propid)\n              {\n                temp=j;\n              }\n            }\n\n            for(uint i=temp;i<account_to_pid_map[owner].length-1;i++)\n            {\n              account_to_pid_map[owner][i]=account_to_pid_map[owner][i+1];\n            }\n\n            delete account_to_pid_map[owner][account_to_pid_map[owner].length-1];\n            account_to_pid_map[owner].length--;\n            //pid_to_noOfOwners[propid]++;\n            //checkLease(propid,pid_to_address_map[propid]);\n            return true;\n        }\n\n        return false;\n    }\n\n\nfunction leasePropertyStart(address owner,address renter,uint prop_id,uint years_after,uint weeks_after,uint days_after) public returns (uint)\n        {\n          \n            \n\n            if(pid_to_address_map[prop_id]==owner)\n            {\n                if(pid_to_rented_map[prop_id]==false)\n                  {\n                   prop_id_to_contract_end[prop_id]=now + years_after* 1 hours + weeks_after * 1 minutes + days_after * 1 seconds;\n                   //contract_end=now + years_after* 1 years + weeks_after * 1 weeks + days_after * 1 days;\n                    if(now<=prop_id_to_contract_end[prop_id])\n                    {\n                        //pid_to_old_owner[prop_id]=owner;\n                        pid_to_address_map[prop_id]=renter;\n                        pid_to_rented_map[prop_id]=true;\n                        chain_of_custody[prop_id].push(renter);\n                        //pid_to_noOfOwners[prop_id]++;\n                    }\n                }\n            }\n\n            \n            \n            //checkLease(prop_id,prop_id_to_contract_end[prop_id]);\n            \n    }\n\n\n    function leasePropertyEnd(address owner,/*address renter,*/uint prop_id) public\n    {\n      /*if(pid_to_address_map[prop_id]==renter && now>prop_id_to_contract_end[prop_id])\n            {*/\n                //pid_to_old_owner[prop_id]=0x0000000000000000000000000000000000000000;\n                pid_to_address_map[prop_id]=owner;\n                pid_to_rented_map[prop_id]=false;\n                chain_of_custody[prop_id].push(owner);\n/*                pid_to_noOfOwners[prop_id]--;\n                delete chain_of_custody[prop_id][pid_to_noOfOwners[prop_id]];*/\n        \n            /*}*/\n            \n            \n    }\n\nfunction startAuction(uint prop_id) public\n{\n  is_auctioned[prop_id]=true;\n}\n\nfunction auction(address account,uint prop_id,uint price) public \n{\n\n  //is_auctioned[prop_id]=true;\n  uint base_amount=account_to_user_name[account].amount;  //the amount the sender expects for the property while registering\n  if(price>=base_amount)\n  {\n    bidding_price_map[account]=price;\n    bid_prices[prop_id].push(price);\n    bid_account[prop_id].push(account);\n   // pid_to_account_to_price_map[prop_id][account]=price;\n    if(price>auction_amount[prop_id])\n    {\n      auction_amount[prop_id]=price;\n      auction_owner[prop_id]=account;\n    }\n  }   \n  \n}\n\nfunction endAuction(uint prop_id,address account) public\n{\n  address owner=pid_to_address_map[prop_id];\n  buyProperty(owner,account,prop_id);\n  is_auctioned[prop_id]=false;\n}\n\n\n}\n",
  "sourcePath": "/home/swarali/newBEProject/BlockchainAssetManagement/PropertyBazaar/contracts/Adoption.sol",
  "compiler": {
    "name": "solc",
    "version": "0.4.19+commit.c4cbbb05.Emscripten.clang"
  },
  "schemaVersion": "1.0.1",
  "updatedAt": "2018-06-08T09:25:45.662Z"
}