{
  "contractName": "Adoption",
  "abi": [
    {
      "constant": true,
      "inputs": [
        {
          "name": "",
          "type": "uint256"
        }
      ],
      "name": "pid_to_rented_map",
      "outputs": [
        {
          "name": "",
          "type": "bool"
        }
      ],
      "payable": false,
      "stateMutability": "view",
      "type": "function"
    },
    {
      "constant": true,
      "inputs": [
        {
          "name": "",
          "type": "uint256"
        }
      ],
      "name": "prop_id_to_contract_end",
      "outputs": [
        {
          "name": "",
          "type": "uint256"
        }
      ],
      "payable": false,
      "stateMutability": "view",
      "type": "function"
    },
    {
      "constant": true,
      "inputs": [
        {
          "name": "",
          "type": "uint256"
        }
      ],
      "name": "pid_to_address_map",
      "outputs": [
        {
          "name": "",
          "type": "address"
        }
      ],
      "payable": false,
      "stateMutability": "view",
      "type": "function"
    },
    {
      "constant": true,
      "inputs": [
        {
          "name": "",
          "type": "uint256"
        },
        {
          "name": "",
          "type": "uint256"
        }
      ],
      "name": "chain_of_custody",
      "outputs": [
        {
          "name": "",
          "type": "address"
        }
      ],
      "payable": false,
      "stateMutability": "view",
      "type": "function"
    },
    {
      "constant": true,
      "inputs": [
        {
          "name": "",
          "type": "uint256"
        }
      ],
      "name": "pid_to_old_owner",
      "outputs": [
        {
          "name": "",
          "type": "address"
        }
      ],
      "payable": false,
      "stateMutability": "view",
      "type": "function"
    },
    {
      "constant": false,
      "inputs": [
        {
          "name": "owner",
          "type": "address"
        },
        {
          "name": "propid",
          "type": "uint256"
        }
      ],
      "name": "addProperty",
      "outputs": [
        {
          "name": "",
          "type": "bool"
        }
      ],
      "payable": false,
      "stateMutability": "nonpayable",
      "type": "function"
    },
    {
      "constant": true,
      "inputs": [
        {
          "name": "prop_id",
          "type": "uint256"
        }
      ],
      "name": "getAddress",
      "outputs": [
        {
          "name": "",
          "type": "address"
        }
      ],
      "payable": false,
      "stateMutability": "view",
      "type": "function"
    },
    {
      "constant": true,
      "inputs": [
        {
          "name": "prop_id",
          "type": "uint256"
        }
      ],
      "name": "getRented",
      "outputs": [
        {
          "name": "",
          "type": "bool"
        }
      ],
      "payable": false,
      "stateMutability": "view",
      "type": "function"
    },
    {
      "constant": true,
      "inputs": [
        {
          "name": "prop_id",
          "type": "uint256"
        }
      ],
      "name": "getOldOwner",
      "outputs": [
        {
          "name": "",
          "type": "address"
        }
      ],
      "payable": false,
      "stateMutability": "view",
      "type": "function"
    },
    {
      "constant": true,
      "inputs": [
        {
          "name": "prop_id",
          "type": "uint256"
        }
      ],
      "name": "getChainOfCustody",
      "outputs": [
        {
          "name": "",
          "type": "address[]"
        }
      ],
      "payable": false,
      "stateMutability": "view",
      "type": "function"
    },
    {
      "constant": true,
      "inputs": [
        {
          "name": "prop_id",
          "type": "uint256"
        }
      ],
      "name": "getCount",
      "outputs": [
        {
          "name": "length",
          "type": "uint256"
        }
      ],
      "payable": false,
      "stateMutability": "view",
      "type": "function"
    },
    {
      "constant": false,
      "inputs": [
        {
          "name": "owner",
          "type": "address"
        },
        {
          "name": "buyer",
          "type": "address"
        },
        {
          "name": "propid",
          "type": "uint256"
        }
      ],
      "name": "buyProperty",
      "outputs": [
        {
          "name": "",
          "type": "bool"
        }
      ],
      "payable": true,
      "stateMutability": "payable",
      "type": "function"
    },
    {
      "constant": false,
      "inputs": [
        {
          "name": "owner",
          "type": "address"
        },
        {
          "name": "renter",
          "type": "address"
        },
        {
          "name": "prop_id",
          "type": "uint256"
        },
        {
          "name": "years_after",
          "type": "uint256"
        },
        {
          "name": "weeks_after",
          "type": "uint256"
        },
        {
          "name": "days_after",
          "type": "uint256"
        }
      ],
      "name": "leasePropertyStart",
      "outputs": [
        {
          "name": "",
          "type": "uint256"
        }
      ],
      "payable": false,
      "stateMutability": "nonpayable",
      "type": "function"
    },
    {
      "constant": false,
      "inputs": [
        {
          "name": "owner",
          "type": "address"
        },
        {
          "name": "prop_id",
          "type": "uint256"
        }
      ],
      "name": "leasePropertyEnd",
      "outputs": [],
      "payable": false,
      "stateMutability": "nonpayable",
      "type": "function"
    }
  ],
  "bytecode": "0x606060405260008055341561001357600080fd5b610ee6806100226000396000f3006060604052600436106100d0576000357c0100000000000000000000000000000000000000000000000000000000900463ffffffff16806308c23366146100d55780630eab57661461014d5780632189a1b21461018857806342e77eae146101f6578063472d8de01461022d5780634cea1b1c146102bd578063677aeb62146103205780636f1db8e11461038c578063b93f9b0a146103ce578063bc1dfa6914610431578063c23539181461048b578063e388cb3a146104c2578063eee9366414610525578063f5f2c3d514610560575b600080fd5b34156100e057600080fd5b6100f660048080359060200190919050506105c3565b6040518080602001828103825283818151815260200191508051906020019060200280838360005b8381101561013957808201518184015260208101905061011e565b505050509050019250505060405180910390f35b341561015857600080fd5b61016e600480803590602001909190505061066a565b604051808215151515815260200191505060405180910390f35b6101dc600480803573ffffffffffffffffffffffffffffffffffffffff1690602001909190803573ffffffffffffffffffffffffffffffffffffffff1690602001909190803590602001909190505061068a565b604051808215151515815260200191505060405180910390f35b341561020157600080fd5b610217600480803590602001909190505061080e565b6040518082815260200191505060405180910390f35b341561023857600080fd5b6102a7600480803573ffffffffffffffffffffffffffffffffffffffff1690602001909190803573ffffffffffffffffffffffffffffffffffffffff16906020019091908035906020019091908035906020019091908035906020019091908035906020019091905050610826565b6040518082815260200191505060405180910390f35b34156102c857600080fd5b6102de6004808035906020019091905050610a51565b604051808273ffffffffffffffffffffffffffffffffffffffff1673ffffffffffffffffffffffffffffffffffffffff16815260200191505060405180910390f35b341561032b57600080fd5b61034a6004808035906020019091908035906020019091905050610a84565b604051808273ffffffffffffffffffffffffffffffffffffffff1673ffffffffffffffffffffffffffffffffffffffff16815260200191505060405180910390f35b341561039757600080fd5b6103cc600480803573ffffffffffffffffffffffffffffffffffffffff16906020019091908035906020019091905050610ad2565b005b34156103d957600080fd5b6103ef6004808035906020019091905050610c1b565b604051808273ffffffffffffffffffffffffffffffffffffffff1673ffffffffffffffffffffffffffffffffffffffff16815260200191505060405180910390f35b341561043c57600080fd5b610471600480803573ffffffffffffffffffffffffffffffffffffffff16906020019091908035906020019091905050610c58565b604051808215151515815260200191505060405180910390f35b341561049657600080fd5b6104ac6004808035906020019091905050610d9b565b6040518082815260200191505060405180910390f35b34156104cd57600080fd5b6104e36004808035906020019091905050610dbb565b604051808273ffffffffffffffffffffffffffffffffffffffff1673ffffffffffffffffffffffffffffffffffffffff16815260200191505060405180910390f35b341561053057600080fd5b6105466004808035906020019091905050610dee565b604051808215151515815260200191505060405180910390f35b341561056b57600080fd5b6105816004808035906020019091905050610e18565b604051808273ffffffffffffffffffffffffffffffffffffffff1673ffffffffffffffffffffffffffffffffffffffff16815260200191505060405180910390f35b6105cb610e55565b6005600083815260200190815260200160002080548060200260200160405190810160405280929190818152602001828054801561065e57602002820191906000526020600020905b8160009054906101000a900473ffffffffffffffffffffffffffffffffffffffff1673ffffffffffffffffffffffffffffffffffffffff1681526020019060010190808311610614575b50505050509050919050565b60036020528060005260406000206000915054906101000a900460ff1681565b60008373ffffffffffffffffffffffffffffffffffffffff166001600084815260200190815260200160002060009054906101000a900473ffffffffffffffffffffffffffffffffffffffff1673ffffffffffffffffffffffffffffffffffffffff161415610802578373ffffffffffffffffffffffffffffffffffffffff166108fc349081150290604051600060405180830381858888f19350505050151561073357600080fd5b826001600084815260200190815260200160002060006101000a81548173ffffffffffffffffffffffffffffffffffffffff021916908373ffffffffffffffffffffffffffffffffffffffff1602179055506005600083815260200190815260200160002080548060010182816107aa9190610e69565b9160005260206000209001600085909190916101000a81548173ffffffffffffffffffffffffffffffffffffffff021916908373ffffffffffffffffffffffffffffffffffffffff1602179055505060019050610807565b600090505b9392505050565b60026020528060005260406000206000915090505481565b60008673ffffffffffffffffffffffffffffffffffffffff166001600087815260200190815260200160002060009054906101000a900473ffffffffffffffffffffffffffffffffffffffff1673ffffffffffffffffffffffffffffffffffffffff161415610a4757600015156003600087815260200190815260200160002060009054906101000a900460ff1615151415610a465760018202603c8402610e108602420101016002600087815260200190815260200160002081905550600260008681526020019081526020016000205442111515610a4557866004600087815260200190815260200160002060006101000a81548173ffffffffffffffffffffffffffffffffffffffff021916908373ffffffffffffffffffffffffffffffffffffffff160217905550856001600087815260200190815260200160002060006101000a81548173ffffffffffffffffffffffffffffffffffffffff021916908373ffffffffffffffffffffffffffffffffffffffff16021790555060016003600087815260200190815260200160002060006101000a81548160ff0219169083151502179055506005600086815260200190815260200160002080548060010182816109f59190610e69565b9160005260206000209001600088909190916101000a81548173ffffffffffffffffffffffffffffffffffffffff021916908373ffffffffffffffffffffffffffffffffffffffff160217905550505b5b5b9695505050505050565b60016020528060005260406000206000915054906101000a900473ffffffffffffffffffffffffffffffffffffffff1681565b600560205281600052604060002081815481101515610a9f57fe5b90600052602060002090016000915091509054906101000a900473ffffffffffffffffffffffffffffffffffffffff1681565b60006004600083815260200190815260200160002060006101000a81548173ffffffffffffffffffffffffffffffffffffffff021916908373ffffffffffffffffffffffffffffffffffffffff160217905550816001600083815260200190815260200160002060006101000a81548173ffffffffffffffffffffffffffffffffffffffff021916908373ffffffffffffffffffffffffffffffffffffffff16021790555060006003600083815260200190815260200160002060006101000a81548160ff021916908315150217905550600560008281526020019081526020016000208054806001018281610bc89190610e69565b9160005260206000209001600084909190916101000a81548173ffffffffffffffffffffffffffffffffffffffff021916908373ffffffffffffffffffffffffffffffffffffffff160217905550505050565b60006001600083815260200190815260200160002060009054906101000a900473ffffffffffffffffffffffffffffffffffffffff169050919050565b60008073ffffffffffffffffffffffffffffffffffffffff166001600084815260200190815260200160002060009054906101000a900473ffffffffffffffffffffffffffffffffffffffff1673ffffffffffffffffffffffffffffffffffffffff161415610d9057826001600084815260200190815260200160002060006101000a81548173ffffffffffffffffffffffffffffffffffffffff021916908373ffffffffffffffffffffffffffffffffffffffff160217905550600560008381526020019081526020016000208054806001018281610d389190610e69565b9160005260206000209001600085909190916101000a81548173ffffffffffffffffffffffffffffffffffffffff021916908373ffffffffffffffffffffffffffffffffffffffff1602179055505060019050610d95565b600090505b92915050565b600060056000838152602001908152602001600020805490509050919050565b60046020528060005260406000206000915054906101000a900473ffffffffffffffffffffffffffffffffffffffff1681565b60006003600083815260200190815260200160002060009054906101000a900460ff169050919050565b60006004600083815260200190815260200160002060009054906101000a900473ffffffffffffffffffffffffffffffffffffffff169050919050565b602060405190810160405280600081525090565b815481835581811511610e9057818360005260206000209182019101610e8f9190610e95565b5b505050565b610eb791905b80821115610eb3576000816000905550600101610e9b565b5090565b905600a165627a7a7230582003f382b4d3b55a96762db605577dffadc360bc07adc9def0090781161b03b2440029",
  "source": "pragma solidity ^0.4.17;\n\ncontract Adoption {\n  uint i=0;\n   mapping(uint=>address) public pid_to_address_map;\n   mapping(uint=>uint) public prop_id_to_contract_end;\n   mapping(uint=>bool) public pid_to_rented_map;\n   mapping(uint=>address) public pid_to_old_owner;\n   mapping(uint=>address[]) public chain_of_custody;\n  // mapping(uint=>uint) public pid_to_noOfOwners;\n\n   //event checkLease(uint prop_id,uint indexed contract_end);\n  \nfunction addProperty(address owner, uint propid) public returns (bool) {\n        if(pid_to_address_map[propid] == 0x0000000000000000000000000000000000000000){\n            pid_to_address_map[propid]=owner;\n            chain_of_custody[propid].push(owner);\n           // pid_to_noOfOwners[propid]=1;\n            //address_to_pid_map[owner]=propid;\n            return true;\n        }\n        return false;\n    }\n\nfunction getAddress(uint prop_id) public view returns (address)\n{\n  return pid_to_address_map[prop_id];\n}\n\nfunction getRented(uint prop_id) public view returns (bool)\n{\n  return pid_to_rented_map[prop_id];\n}\n\nfunction getOldOwner(uint prop_id) public view returns (address)\n{\n  return pid_to_old_owner[prop_id];\n}\n\nfunction getChainOfCustody(uint prop_id) public view returns (address[])\n{\n  return chain_of_custody[prop_id];\n}\n\nfunction getCount(uint prop_id) public view returns(uint length) {\n    return chain_of_custody[prop_id].length;\n  }\n\nfunction buyProperty(address owner, address buyer, uint propid) public payable returns (bool) {\n\n        if(pid_to_address_map[propid] == owner)\n        {\n            owner.transfer(msg.value);\n            pid_to_address_map[propid] = buyer;\n            chain_of_custody[propid].push(buyer);\n            //pid_to_noOfOwners[propid]++;\n            //checkLease(propid,pid_to_address_map[propid]);\n            return true;\n        }\n\n        return false;\n    }\n\n\nfunction leasePropertyStart(address owner,address renter,uint prop_id,uint years_after,uint weeks_after,uint days_after) public returns (uint)\n        {\n          \n            \n\n            if(pid_to_address_map[prop_id]==owner)\n            {\n                if(pid_to_rented_map[prop_id]==false)\n                {\n                   prop_id_to_contract_end[prop_id]=now + years_after* 1 hours + weeks_after * 1 minutes + days_after * 1 seconds;\n                   //contract_end=now + years_after* 1 years + weeks_after * 1 weeks + days_after * 1 days;\n                    if(now<=prop_id_to_contract_end[prop_id])\n                    {\n                        pid_to_old_owner[prop_id]=owner;\n                        pid_to_address_map[prop_id]=renter;\n                        pid_to_rented_map[prop_id]=true;\n                        chain_of_custody[prop_id].push(renter);\n                        //pid_to_noOfOwners[prop_id]++;\n                    }\n                }\n            }\n\n            \n            \n            //checkLease(prop_id,prop_id_to_contract_end[prop_id]);\n            \n    }\n\n\n    function leasePropertyEnd(address owner,/*address renter,*/uint prop_id) public\n    {\n      /*if(pid_to_address_map[prop_id]==renter && now>prop_id_to_contract_end[prop_id])\n            {*/\n                pid_to_old_owner[prop_id]=0x0000000000000000000000000000000000000000;\n                pid_to_address_map[prop_id]=owner;\n                pid_to_rented_map[prop_id]=false;\n                chain_of_custody[prop_id].push(owner);\n/*                pid_to_noOfOwners[prop_id]--;\n                delete chain_of_custody[prop_id][pid_to_noOfOwners[prop_id]];*/\n        \n            /*}*/\n            \n            \n    }\n\n\n}\n\n\n\n",
  "sourcePath": "/home/swarali/Jha/BlockchainAssetManagement/contracts/Adoption.sol",
  "compiler": {
    "name": "solc",
    "version": "0.4.19+commit.c4cbbb05.Emscripten.clang"
  },
  "schemaVersion": "1.0.1",
  "updatedAt": "2018-03-19T09:20:44.041Z"
}